{
  "contractName": "ETHUSD",
  "abi": [
    {
      "constant": true,
      "inputs": [],
      "name": "lastOraclizeCallback",
      "outputs": [
        {
          "name": "",
          "type": "uint256"
        }
      ],
      "payable": false,
      "stateMutability": "view",
      "type": "function"
    },
    {
      "constant": true,
      "inputs": [],
      "name": "ethInCents",
      "outputs": [
        {
          "name": "",
          "type": "uint256"
        }
      ],
      "payable": false,
      "stateMutability": "view",
      "type": "function"
    },
    {
      "inputs": [],
      "payable": false,
      "stateMutability": "nonpayable",
      "type": "constructor"
    },
    {
      "anonymous": false,
      "inputs": [
        {
          "indexed": false,
          "name": "description",
          "type": "string"
        }
      ],
      "name": "LogOraclizeQuery",
      "type": "event"
    },
    {
      "anonymous": false,
      "inputs": [
        {
          "indexed": false,
          "name": "price",
          "type": "string"
        }
      ],
      "name": "LogPriceUpdated",
      "type": "event"
    },
    {
      "constant": false,
      "inputs": [],
      "name": "update",
      "outputs": [],
      "payable": true,
      "stateMutability": "payable",
      "type": "function"
    },
    {
      "constant": false,
      "inputs": [],
      "name": "instantUpdate",
      "outputs": [],
      "payable": true,
      "stateMutability": "payable",
      "type": "function"
    },
    {
      "constant": false,
      "inputs": [
        {
          "name": "cbId",
          "type": "bytes32"
        },
        {
          "name": "result",
          "type": "string"
        }
      ],
      "name": "__callback",
      "outputs": [],
      "payable": false,
      "stateMutability": "nonpayable",
      "type": "function"
    },
    {
      "constant": false,
      "inputs": [
        {
          "name": "myid",
          "type": "bytes32"
        },
        {
          "name": "result",
          "type": "string"
        },
        {
          "name": "proof",
          "type": "bytes"
        }
      ],
      "name": "__callback",
      "outputs": [],
      "payable": false,
      "stateMutability": "nonpayable",
      "type": "function"
    }
  ],
  "bytecode": "0x60806040523480156200001157600080fd5b50600060068190558054600160a060020a031916734f95a4dced8beb5056ff1f0aa8dbe17ded99327c1790556200005064010000000062000056810204565b62000dc3565b60006200006b640100000000620001d8810204565b15156200007757600080fd5b600854156200008557600080fd5b6040805160208082526031908201527f52657175657374696e67204f7261636c697a6520746f207375626d6974206c61818301527f7465737420455448555344207072696365000000000000000000000000000000606082015290517f0415a732c27dc65a8318b1f49677f1d76eb7365d60653ee494ed0897ef70abc89181900360800190a1620001b9603c6040805190810160405280600381526020017f55524c0000000000000000000000000000000000000000000000000000000000815250606060405190810160405280603081526020017f6a736f6e2868747470733a2f2f6170692e696e667572612e696f2f76312f746981526020017f636b65722f657468757364292e61736b000000000000000000000000000000008152506200022e640100000000026401000000009004565b6000818152600760205260409020805460ff1916600117905560085550565b60408051808201909152600381527f55524c00000000000000000000000000000000000000000000000000000000006020820152600090303190620002269064010000000062000682810204565b111590505b90565b600080548190600160a060020a031615806200026757506000546200026590600160a060020a03166401000000006200093d810204565b155b15620002845762000282600064010000000062000941810204565b505b6000809054906101000a9004600160a060020a0316600160a060020a03166338cc48316040518163ffffffff167c0100000000000000000000000000000000000000000000000000000000028152600401602060405180830381600087803b158015620002f057600080fd5b505af115801562000305573d6000803e3d6000fd5b505050506040513d60208110156200031c57600080fd5b5051600154600160a060020a03908116911614620003ee576000809054906101000a9004600160a060020a0316600160a060020a03166338cc48316040518163ffffffff167c0100000000000000000000000000000000000000000000000000000000028152600401602060405180830381600087803b158015620003a057600080fd5b505af1158015620003b5573d6000803e3d6000fd5b505050506040513d6020811015620003cc57600080fd5b505160018054600160a060020a031916600160a060020a039092169190911790555b6001546040517f524f3889000000000000000000000000000000000000000000000000000000008152602060048201818152875160248401528751600160a060020a039094169363524f388993899383926044909201919085019080838360005b83811015620004695781810151838201526020016200044f565b50505050905090810190601f168015620004975780820380516001836020036101000a031916815260200191505b5092505050602060405180830381600087803b158015620004b757600080fd5b505af1158015620004cc573d6000803e3d6000fd5b505050506040513d6020811015620004e357600080fd5b50519050670de0b6b3a764000062030d403a02018111156200050957600091506200067a565b6001546040517fadf59f9900000000000000000000000000000000000000000000000000000000815260048101878152606060248301908152875160648401528751600160a060020a039094169363adf59f999386938b938b938b936044810191608490910190602087019080838360005b83811015620005955781810151838201526020016200057b565b50505050905090810190601f168015620005c35780820380516001836020036101000a031916815260200191505b50838103825284518152845160209182019186019080838360005b83811015620005f8578181015183820152602001620005de565b50505050905090810190601f168015620006265780820380516001836020036101000a031916815260200191505b50955050505050506020604051808303818588803b1580156200064857600080fd5b505af11580156200065d573d6000803e3d6000fd5b50505050506040513d60208110156200067557600080fd5b505191505b509392505050565b60008054600160a060020a03161580620006b95750600054620006b790600160a060020a03166401000000006200093d810204565b155b15620006d657620006d4600064010000000062000941810204565b505b6000809054906101000a9004600160a060020a0316600160a060020a03166338cc48316040518163ffffffff167c0100000000000000000000000000000000000000000000000000000000028152600401602060405180830381600087803b1580156200074257600080fd5b505af115801562000757573d6000803e3d6000fd5b505050506040513d60208110156200076e57600080fd5b5051600154600160a060020a0390811691161462000840576000809054906101000a9004600160a060020a0316600160a060020a03166338cc48316040518163ffffffff167c0100000000000000000000000000000000000000000000000000000000028152600401602060405180830381600087803b158015620007f257600080fd5b505af115801562000807573d6000803e3d6000fd5b505050506040513d60208110156200081e57600080fd5b505160018054600160a060020a031916600160a060020a039092169190911790555b6001546040517f524f3889000000000000000000000000000000000000000000000000000000008152602060048201818152855160248401528551600160a060020a039094169363524f388993879383926044909201919085019080838360005b83811015620008bb578181015183820152602001620008a1565b50505050905090810190601f168015620008e95780820380516001836020036101000a031916815260200191505b5092505050602060405180830381600087803b1580156200090957600080fd5b505af11580156200091e573d6000803e3d6000fd5b505050506040513d60208110156200093557600080fd5b505192915050565b3b90565b6000620009566401000000006200095c810204565b92915050565b60008062000987731d3b2638a7cc9f2cb3d298a3da7a90b67e5506ed6401000000006200093d810204565b111562000a055760008054600160a060020a031916731d3b2638a7cc9f2cb3d298a3da7a90b67e5506ed17905560408051808201909152600b81527f6574685f6d61696e6e65740000000000000000000000000000000000000000006020820152620009fc9064010000000062000d08810204565b5060016200022b565b600062000a2f73c03a2615d5efaf5f49f60b7bb6583eaec212fdf16401000000006200093d810204565b111562000aa45760008054600160a060020a03191673c03a2615d5efaf5f49f60b7bb6583eaec212fdf117905560408051808201909152600c81527f6574685f726f707374656e3300000000000000000000000000000000000000006020820152620009fc9064010000000062000d08810204565b600062000ace73b7a07bcf2ba2f2703b24c0691b5278999c59ac7e6401000000006200093d810204565b111562000b435760008054600160a060020a03191673b7a07bcf2ba2f2703b24c0691b5278999c59ac7e17905560408051808201909152600981527f6574685f6b6f76616e00000000000000000000000000000000000000000000006020820152620009fc9064010000000062000d08810204565b600062000b6d73146500cfd35b22e4a392fe0adc06de1a1368ed486401000000006200093d810204565b111562000be25760008054600160a060020a03191673146500cfd35b22e4a392fe0adc06de1a1368ed4817905560408051808201909152600b81527f6574685f72696e6b6562790000000000000000000000000000000000000000006020820152620009fc9064010000000062000d08810204565b600062000c0c736f485c8bf6fc43ea212e93bbf8ce046c7f1cb4756401000000006200093d810204565b111562000c42575060008054600160a060020a031916736f485c8bf6fc43ea212e93bbf8ce046c7f1cb47517905560016200022b565b600062000c6c7320e12a1f859b3feae5fb2a0a32c18f5a65555bbf6401000000006200093d810204565b111562000ca2575060008054600160a060020a0319167320e12a1f859b3feae5fb2a0a32c18f5a65555bbf17905560016200022b565b600062000ccc7351efaf4c8b3c9afbd5ab9f4bbc82784ab6ef8faa6401000000006200093d810204565b111562000d02575060008054600160a060020a0319167351efaf4c8b3c9afbd5ab9f4bbc82784ab6ef8faa17905560016200022b565b50600090565b805162000d1d90600290602084019062000d21565b5050565b828054600181600116156101000203166002900490600052602060002090601f016020900481019282601f1062000d6457805160ff191683800117855562000d94565b8280016001018555821562000d94579182015b8281111562000d9457825182559160200191906001019062000d77565b5062000da292915062000da6565b5090565b6200022b91905b8082111562000da2576000815560010162000dad565b6117de8062000dd36000396000f30060806040526004361061005e5763ffffffff60e060020a60003504166327dc297e811461006357806338bbfa50146100c357806360fd19ba1461015f57806381592aab14610186578063a2e620451461018e578063fe31482a14610196575b600080fd5b34801561006f57600080fd5b5060408051602060046024803582810135601f81018590048502860185019096528585526100c19583359536956044949193909101919081908401838280828437509497506101ab9650505050505050565b005b3480156100cf57600080fd5b5060408051602060046024803582810135601f81018590048502860185019096528585526100c195833595369560449491939091019190819084018382808284375050604080516020601f89358b018035918201839004830284018301909452808352979a9998810197919650918201945092508291508401838280828437509497506102dd9650505050505050565b34801561016b57600080fd5b506101746102e2565b60408051918252519081900360200190f35b6100c16102e8565b6100c1610423565b3480156101a257600080fd5b50610174610570565b6101b3610576565b600160a060020a031633146101c757600080fd5b60008281526007602052604090205460ff1615156101e457600080fd5b6101ef816002610768565b6005556000828152600760209081526040808320805460ff1916905543600655805182815284518184015284517f71f1a5645e51a2da828ffcf79cc17da88eb25e1bca8b9dced23210847a4769c19486949293849390840192908601918190849084905b8381101561026b578181015183820152602001610253565b50505050905090810190601f1680156102985780820380516001836020036101000a031916815260200191505b509250505060405180910390a16008548214156102b95760006008556102be565b6102d9565b6102c6610922565b15156102d1576102d9565b6102d9610423565b5050565b505050565b60065481565b60006102f261095d565b15156102fd57600080fd5b604080516020808252603b908201527f52657175657374696e67204f7261636c697a6520746f207375626d6974206c61818301527f746573742045544855534420707269636520696e7374616e746c790000000000606082015290517f0415a732c27dc65a8318b1f49677f1d76eb7365d60653ee494ed0897ef70abc89181900360800190a161040760408051908101604052806003815260200160ea60020a6215549302815250606060405190810160405280603081526020017f6a736f6e2868747470733a2f2f6170692e696e667572612e696f2f76312f746981526020017f636b65722f657468757364292e61736b00000000000000000000000000000000815250610987565b6000908152600760205260409020805460ff1916600117905550565b600061042d610922565b151561043857600080fd5b6008541561044557600080fd5b6040805160208082526031908201527f52657175657374696e67204f7261636c697a6520746f207375626d6974206c61818301527f7465737420455448555344207072696365000000000000000000000000000000606082015290517f0415a732c27dc65a8318b1f49677f1d76eb7365d60653ee494ed0897ef70abc89181900360800190a1610551603c60408051908101604052806003815260200160ea60020a6215549302815250606060405190810160405280603081526020017f6a736f6e2868747470733a2f2f6170692e696e667572612e696f2f76312f746981526020017f636b65722f657468757364292e61736b00000000000000000000000000000000815250610d7a565b6000818152600760205260409020805460ff1916600117905560085550565b60055481565b60008054600160a060020a031615806105a1575060005461059f90600160a060020a031661116c565b155b156105b2576105b06000611170565b505b6000809054906101000a9004600160a060020a0316600160a060020a03166338cc48316040518163ffffffff1660e060020a028152600401602060405180830381600087803b15801561060457600080fd5b505af1158015610618573d6000803e3d6000fd5b505050506040513d602081101561062e57600080fd5b5051600154600160a060020a039081169116146106e3576000809054906101000a9004600160a060020a0316600160a060020a03166338cc48316040518163ffffffff1660e060020a028152600401602060405180830381600087803b15801561069757600080fd5b505af11580156106ab573d6000803e3d6000fd5b505050506040513d60208110156106c157600080fd5b505160018054600160a060020a031916600160a060020a039092169190911790555b600160009054906101000a9004600160a060020a0316600160a060020a031663c281d19e6040518163ffffffff1660e060020a028152600401602060405180830381600087803b15801561073657600080fd5b505af115801561074a573d6000803e3d6000fd5b505050506040513d602081101561076057600080fd5b505190505b90565b6000828180805b83518110156109055783517f3000000000000000000000000000000000000000000000000000000000000000908590839081106107a857fe5b90602001015160f860020a900460f860020a027effffffffffffffffffffffffffffffffffffffffffffffffffffffffffffff19161015801561084e575083517f39000000000000000000000000000000000000000000000000000000000000009085908390811061081657fe5b90602001015160f860020a900460f860020a027effffffffffffffffffffffffffffffffffffffffffffffffffffffffffffff191611155b156108a757811561086d5785151561086557610905565b600019909501945b600a830292506030848281518110151561088357fe5b90602001015160f860020a900460f860020a0260f860020a900403830192506108fd565b83818151811015156108b557fe5b90602001015160f860020a900460f860020a027effffffffffffffffffffffffffffffffffffffffffffffffffffffffffffff1916602e60f860020a0214156108fd57600191505b60010161076f565b60008611156109175785600a0a830292505b509095945050505050565b600030600160a060020a03163161095660408051908101604052806003815260200160ea60020a6215549302815250611180565b1115905090565b60003461095660408051908101604052806003815260200160ea60020a6215549302815250611180565b600080548190600160a060020a031615806109b457506000546109b290600160a060020a031661116c565b155b156109c5576109c36000611170565b505b6000809054906101000a9004600160a060020a0316600160a060020a03166338cc48316040518163ffffffff1660e060020a028152600401602060405180830381600087803b158015610a1757600080fd5b505af1158015610a2b573d6000803e3d6000fd5b505050506040513d6020811015610a4157600080fd5b5051600154600160a060020a03908116911614610af6576000809054906101000a9004600160a060020a0316600160a060020a03166338cc48316040518163ffffffff1660e060020a028152600401602060405180830381600087803b158015610aaa57600080fd5b505af1158015610abe573d6000803e3d6000fd5b505050506040513d6020811015610ad457600080fd5b505160018054600160a060020a031916600160a060020a039092169190911790555b6001546040517f524f3889000000000000000000000000000000000000000000000000000000008152602060048201818152875160248401528751600160a060020a039094169363524f388993899383926044909201919085019080838360005b83811015610b6f578181015183820152602001610b57565b50505050905090810190601f168015610b9c5780820380516001836020036101000a031916815260200191505b5092505050602060405180830381600087803b158015610bbb57600080fd5b505af1158015610bcf573d6000803e3d6000fd5b505050506040513d6020811015610be557600080fd5b50519050670de0b6b3a764000062030d403a0201811115610c095760009150610d73565b6001546040517fadf59f99000000000000000000000000000000000000000000000000000000008152600060048201818152606060248401908152885160648501528851600160a060020a039095169463adf59f99948794938b938b939192909160448201916084019060208701908083838b5b83811015610c95578181015183820152602001610c7d565b50505050905090810190601f168015610cc25780820380516001836020036101000a031916815260200191505b50838103825284518152845160209182019186019080838360005b83811015610cf5578181015183820152602001610cdd565b50505050905090810190601f168015610d225780820380516001836020036101000a031916815260200191505b50955050505050506020604051808303818588803b158015610d4357600080fd5b505af1158015610d57573d6000803e3d6000fd5b50505050506040513d6020811015610d6e57600080fd5b505191505b5092915050565b600080548190600160a060020a03161580610da75750600054610da590600160a060020a031661116c565b155b15610db857610db66000611170565b505b6000809054906101000a9004600160a060020a0316600160a060020a03166338cc48316040518163ffffffff1660e060020a028152600401602060405180830381600087803b158015610e0a57600080fd5b505af1158015610e1e573d6000803e3d6000fd5b505050506040513d6020811015610e3457600080fd5b5051600154600160a060020a03908116911614610ee9576000809054906101000a9004600160a060020a0316600160a060020a03166338cc48316040518163ffffffff1660e060020a028152600401602060405180830381600087803b158015610e9d57600080fd5b505af1158015610eb1573d6000803e3d6000fd5b505050506040513d6020811015610ec757600080fd5b505160018054600160a060020a031916600160a060020a039092169190911790555b6001546040517f524f3889000000000000000000000000000000000000000000000000000000008152602060048201818152875160248401528751600160a060020a039094169363524f388993899383926044909201919085019080838360005b83811015610f62578181015183820152602001610f4a565b50505050905090810190601f168015610f8f5780820380516001836020036101000a031916815260200191505b5092505050602060405180830381600087803b158015610fae57600080fd5b505af1158015610fc2573d6000803e3d6000fd5b505050506040513d6020811015610fd857600080fd5b50519050670de0b6b3a764000062030d403a0201811115610ffc5760009150611164565b6001546040517fadf59f9900000000000000000000000000000000000000000000000000000000815260048101878152606060248301908152875160648401528751600160a060020a039094169363adf59f999386938b938b938b936044810191608490910190602087019080838360005b8381101561108657818101518382015260200161106e565b50505050905090810190601f1680156110b35780820380516001836020036101000a031916815260200191505b50838103825284518152845160209182019186019080838360005b838110156110e65781810151838201526020016110ce565b50505050905090810190601f1680156111135780820380516001836020036101000a031916815260200191505b50955050505050506020604051808303818588803b15801561113457600080fd5b505af1158015611148573d6000803e3d6000fd5b50505050506040513d602081101561115f57600080fd5b505191505b509392505050565b3b90565b600061117a6113e4565b92915050565b60008054600160a060020a031615806111ab57506000546111a990600160a060020a031661116c565b155b156111bc576111ba6000611170565b505b6000809054906101000a9004600160a060020a0316600160a060020a03166338cc48316040518163ffffffff1660e060020a028152600401602060405180830381600087803b15801561120e57600080fd5b505af1158015611222573d6000803e3d6000fd5b505050506040513d602081101561123857600080fd5b5051600154600160a060020a039081169116146112ed576000809054906101000a9004600160a060020a0316600160a060020a03166338cc48316040518163ffffffff1660e060020a028152600401602060405180830381600087803b1580156112a157600080fd5b505af11580156112b5573d6000803e3d6000fd5b505050506040513d60208110156112cb57600080fd5b505160018054600160a060020a031916600160a060020a039092169190911790555b6001546040517f524f3889000000000000000000000000000000000000000000000000000000008152602060048201818152855160248401528551600160a060020a039094169363524f388993879383926044909201919085019080838360005b8381101561136657818101518382015260200161134e565b50505050905090810190601f1680156113935780820380516001836020036101000a031916815260200191505b5092505050602060405180830381600087803b1580156113b257600080fd5b505af11580156113c6573d6000803e3d6000fd5b505050506040513d60208110156113dc57600080fd5b505192915050565b600080611404731d3b2638a7cc9f2cb3d298a3da7a90b67e5506ed61116c565b11156114755760008054600160a060020a031916731d3b2638a7cc9f2cb3d298a3da7a90b67e5506ed17905560408051808201909152600b81527f6574685f6d61696e6e6574000000000000000000000000000000000000000000602082015261146d9061170c565b506001610765565b600061149473c03a2615d5efaf5f49f60b7bb6583eaec212fdf161116c565b11156114fd5760008054600160a060020a03191673c03a2615d5efaf5f49f60b7bb6583eaec212fdf117905560408051808201909152600c81527f6574685f726f707374656e330000000000000000000000000000000000000000602082015261146d9061170c565b600061151c73b7a07bcf2ba2f2703b24c0691b5278999c59ac7e61116c565b11156115855760008054600160a060020a03191673b7a07bcf2ba2f2703b24c0691b5278999c59ac7e17905560408051808201909152600981527f6574685f6b6f76616e0000000000000000000000000000000000000000000000602082015261146d9061170c565b60006115a473146500cfd35b22e4a392fe0adc06de1a1368ed4861116c565b111561160d5760008054600160a060020a03191673146500cfd35b22e4a392fe0adc06de1a1368ed4817905560408051808201909152600b81527f6574685f72696e6b656279000000000000000000000000000000000000000000602082015261146d9061170c565b600061162c736f485c8bf6fc43ea212e93bbf8ce046c7f1cb47561116c565b1115611660575060008054600160a060020a031916736f485c8bf6fc43ea212e93bbf8ce046c7f1cb4751790556001610765565b600061167f7320e12a1f859b3feae5fb2a0a32c18f5a65555bbf61116c565b11156116b3575060008054600160a060020a0319167320e12a1f859b3feae5fb2a0a32c18f5a65555bbf1790556001610765565b60006116d27351efaf4c8b3c9afbd5ab9f4bbc82784ab6ef8faa61116c565b1115611706575060008054600160a060020a0319167351efaf4c8b3c9afbd5ab9f4bbc82784ab6ef8faa1790556001610765565b50600090565b80516102d9906002906020840190828054600181600116156101000203166002900490600052602060002090601f016020900481019282601f1061175b57805160ff1916838001178555611788565b82800160010185558215611788579182015b8281111561178857825182559160200191906001019061176d565b50611794929150611798565b5090565b61076591905b80821115611794576000815560010161179e5600a165627a7a7230582011382ea33a89d2c9eb97ec7de1c4e3165919ea4eb763ceb9c7973f5811cdadd80029",
  "source": "pragma solidity 0.4.24;\n\nimport \"./usingOraclize.sol\";\n\n\n/**\n * Contract which exposes `ethInCents` which is the Ether price in USD cents.\n * E.g. if 1 Ether is sold at 840.32 USD on the markets, the `ethInCents` will\n * be `84032`.\n *\n * This price is supplied by Oraclize callback, which sets the value. Currently\n * there is no proof provided for the callback, other then the value and the\n * corresponding ID which was generated when this contract called Oraclize.\n *\n * If this contract runs out of Ether, the callback cycle will interrupt until\n * the `update` function is called with a transaction which also replenishes the\n * balance of the contract.\n */\ncontract ETHUSD is usingOraclize {\n\n   /** ######################################################################\n    *\n    *  S T O R A G E\n    *\n    * ######################################################################\n    */\n\n    uint256 public ethInCents;\n    \n    uint256 public lastOraclizeCallback;\n\n    // Calls to oraclize generate a unique ID and the subsequent callback uses\n    // that ID. We allow callbacks only if they have a valid ID.\n    mapping(bytes32 => bool) private validIds;\n\n    // Allow only single auto update cycle, to prevent DOS attack.\n    bytes32 private autoUpdateId;\n\n    /** ######################################################################\n     *\n     *  E V E N T S\n     *\n     * ######################################################################\n     */\n\n    event LogOraclizeQuery(string description);\n    event LogPriceUpdated(string price);\n\n\n    /** ######################################################################\n     *\n     *  F U N C T I O N S\n     *\n     * ######################################################################\n     */\n\n    // NB: ethInCents is not initialised until the first Oraclize callback comes\n    // in.\n    constructor() public {\n        lastOraclizeCallback = 0;\n\n        // For local Ethereum network, we need to supply our own OAR contract\n        // address.\n        OAR = OraclizeAddrResolverI(0x4f95A4DceD8Beb5056fF1F0aa8dbE17DED99327c);\n\n        update();\n    }\n\n    function update() public payable {\n        require(hasEnoughFunds());\n        require(autoUpdateId == bytes32(0));\n\n        emit LogOraclizeQuery(\"Requesting Oraclize to submit latest ETHUSD price\");\n\n        bytes32 qId = oraclize_query(60, \"URL\", \"json(https://api.infura.io/v1/ticker/ethusd).ask\");\n        validIds[qId] = true;\n        autoUpdateId = qId;\n    }\n\n    function instantUpdate() public payable {\n        require(hasEnoughFundsInThisCall());\n\n        emit LogOraclizeQuery(\"Requesting Oraclize to submit latest ETHUSD price instantly\");\n\n        bytes32 qId = oraclize_query(\"URL\", \"json(https://api.infura.io/v1/ticker/ethusd).ask\");\n        validIds[qId] = true;\n    }\n\n    function __callback(bytes32 cbId, string result) public {\n        require(msg.sender == oraclize_cbAddress());\n        require(validIds[cbId]);\n\n        ethInCents = parseInt(result, 2);\n        delete validIds[cbId];\n\n        lastOraclizeCallback = block.number;\n\n        emit LogPriceUpdated(result);\n\n        if (cbId == autoUpdateId) {\n            autoUpdateId = bytes32(0);\n        } else {\n            // Don't auto update if it was instant update.\n            return;\n        }\n        if (!hasEnoughFunds()) {\n            // Exit to not revert received price.\n            return;\n        }\n        update();\n    }\n\n    function hasEnoughFunds() internal returns (bool) {\n        return oraclize_getPrice(\"URL\") <= address(this).balance;\n    }\n\n    function hasEnoughFundsInThisCall() internal returns (bool) {\n        return oraclize_getPrice(\"URL\") <= msg.value;\n    }\n}",
  "sourcePath": "/Users/florianpircher/Documents/HydrominerCoin/contracts/ETHUSD.sol",
  "compiler": {
    "name": "solc",
    "version": "0.4.24+commit.e67f0147.Emscripten.clang"
  },
  "schemaVersion": "2.0.1",
  "updatedAt": "2018-07-06T15:45:26.823Z"
}