{
  "contractName": "H3O",
  "abi": [
    {
      "constant": true,
      "inputs": [],
      "name": "name",
      "outputs": [
        {
          "name": "",
          "type": "string"
        }
      ],
      "payable": false,
      "stateMutability": "view",
      "type": "function"
    },
    {
      "constant": false,
      "inputs": [
        {
          "name": "_spender",
          "type": "address"
        },
        {
          "name": "_value",
          "type": "uint256"
        }
      ],
      "name": "approve",
      "outputs": [
        {
          "name": "",
          "type": "bool"
        }
      ],
      "payable": false,
      "stateMutability": "nonpayable",
      "type": "function"
    },
    {
      "constant": true,
      "inputs": [],
      "name": "totalSupply",
      "outputs": [
        {
          "name": "",
          "type": "uint256"
        }
      ],
      "payable": false,
      "stateMutability": "view",
      "type": "function"
    },
    {
      "constant": false,
      "inputs": [
        {
          "name": "_from",
          "type": "address"
        },
        {
          "name": "_to",
          "type": "address"
        },
        {
          "name": "_value",
          "type": "uint256"
        }
      ],
      "name": "transferFrom",
      "outputs": [
        {
          "name": "",
          "type": "bool"
        }
      ],
      "payable": false,
      "stateMutability": "nonpayable",
      "type": "function"
    },
    {
      "constant": true,
      "inputs": [],
      "name": "INITIAL_SUPPLY",
      "outputs": [
        {
          "name": "",
          "type": "uint256"
        }
      ],
      "payable": false,
      "stateMutability": "view",
      "type": "function"
    },
    {
      "constant": true,
      "inputs": [],
      "name": "decimals",
      "outputs": [
        {
          "name": "",
          "type": "uint8"
        }
      ],
      "payable": false,
      "stateMutability": "view",
      "type": "function"
    },
    {
      "constant": false,
      "inputs": [
        {
          "name": "_value",
          "type": "uint256"
        }
      ],
      "name": "burn",
      "outputs": [],
      "payable": false,
      "stateMutability": "nonpayable",
      "type": "function"
    },
    {
      "constant": false,
      "inputs": [
        {
          "name": "_spender",
          "type": "address"
        },
        {
          "name": "_subtractedValue",
          "type": "uint256"
        }
      ],
      "name": "decreaseApproval",
      "outputs": [
        {
          "name": "",
          "type": "bool"
        }
      ],
      "payable": false,
      "stateMutability": "nonpayable",
      "type": "function"
    },
    {
      "constant": true,
      "inputs": [
        {
          "name": "_owner",
          "type": "address"
        }
      ],
      "name": "balanceOf",
      "outputs": [
        {
          "name": "",
          "type": "uint256"
        }
      ],
      "payable": false,
      "stateMutability": "view",
      "type": "function"
    },
    {
      "constant": false,
      "inputs": [],
      "name": "renounceOwnership",
      "outputs": [],
      "payable": false,
      "stateMutability": "nonpayable",
      "type": "function"
    },
    {
      "constant": false,
      "inputs": [
        {
          "name": "_from",
          "type": "address"
        },
        {
          "name": "_value",
          "type": "uint256"
        }
      ],
      "name": "burnFrom",
      "outputs": [],
      "payable": false,
      "stateMutability": "nonpayable",
      "type": "function"
    },
    {
      "constant": true,
      "inputs": [],
      "name": "owner",
      "outputs": [
        {
          "name": "",
          "type": "address"
        }
      ],
      "payable": false,
      "stateMutability": "view",
      "type": "function"
    },
    {
      "constant": true,
      "inputs": [],
      "name": "symbol",
      "outputs": [
        {
          "name": "",
          "type": "string"
        }
      ],
      "payable": false,
      "stateMutability": "view",
      "type": "function"
    },
    {
      "constant": false,
      "inputs": [
        {
          "name": "_to",
          "type": "address"
        },
        {
          "name": "_value",
          "type": "uint256"
        }
      ],
      "name": "transfer",
      "outputs": [
        {
          "name": "",
          "type": "bool"
        }
      ],
      "payable": false,
      "stateMutability": "nonpayable",
      "type": "function"
    },
    {
      "constant": false,
      "inputs": [
        {
          "name": "_spender",
          "type": "address"
        },
        {
          "name": "_addedValue",
          "type": "uint256"
        }
      ],
      "name": "increaseApproval",
      "outputs": [
        {
          "name": "",
          "type": "bool"
        }
      ],
      "payable": false,
      "stateMutability": "nonpayable",
      "type": "function"
    },
    {
      "constant": true,
      "inputs": [
        {
          "name": "_owner",
          "type": "address"
        },
        {
          "name": "_spender",
          "type": "address"
        }
      ],
      "name": "allowance",
      "outputs": [
        {
          "name": "",
          "type": "uint256"
        }
      ],
      "payable": false,
      "stateMutability": "view",
      "type": "function"
    },
    {
      "constant": false,
      "inputs": [
        {
          "name": "_newOwner",
          "type": "address"
        }
      ],
      "name": "transferOwnership",
      "outputs": [],
      "payable": false,
      "stateMutability": "nonpayable",
      "type": "function"
    },
    {
      "inputs": [],
      "payable": false,
      "stateMutability": "nonpayable",
      "type": "constructor"
    },
    {
      "anonymous": false,
      "inputs": [
        {
          "indexed": true,
          "name": "previousOwner",
          "type": "address"
        }
      ],
      "name": "OwnershipRenounced",
      "type": "event"
    },
    {
      "anonymous": false,
      "inputs": [
        {
          "indexed": true,
          "name": "previousOwner",
          "type": "address"
        },
        {
          "indexed": true,
          "name": "newOwner",
          "type": "address"
        }
      ],
      "name": "OwnershipTransferred",
      "type": "event"
    },
    {
      "anonymous": false,
      "inputs": [
        {
          "indexed": true,
          "name": "burner",
          "type": "address"
        },
        {
          "indexed": false,
          "name": "value",
          "type": "uint256"
        }
      ],
      "name": "Burn",
      "type": "event"
    },
    {
      "anonymous": false,
      "inputs": [
        {
          "indexed": true,
          "name": "owner",
          "type": "address"
        },
        {
          "indexed": true,
          "name": "spender",
          "type": "address"
        },
        {
          "indexed": false,
          "name": "value",
          "type": "uint256"
        }
      ],
      "name": "Approval",
      "type": "event"
    },
    {
      "anonymous": false,
      "inputs": [
        {
          "indexed": true,
          "name": "from",
          "type": "address"
        },
        {
          "indexed": true,
          "name": "to",
          "type": "address"
        },
        {
          "indexed": false,
          "name": "value",
          "type": "uint256"
        }
      ],
      "name": "Transfer",
      "type": "event"
    },
    {
      "constant": false,
      "inputs": [
        {
          "name": "_crowdSaleAddr",
          "type": "address"
        }
      ],
      "name": "setCrowdsale",
      "outputs": [],
      "payable": false,
      "stateMutability": "nonpayable",
      "type": "function"
    }
  ],
  "bytecode": "0x608060405234801561001057600080fd5b5060038054600160a060020a0319163390811790915569021e19e0c9bab2400000600181905560008281526020818152604080832084905580519384525191927fddf252ad1be2c89b69c2b068fc378daa952ba7f163c4a11628f55a4df523b3ef929081900390910190a3610c3c8061008a6000396000f3006080604052600436106100fb5763ffffffff7c010000000000000000000000000000000000000000000000000000000060003504166306fdde038114610100578063095ea7b31461018a57806318160ddd146101c257806323b872dd146101e95780632ff2e9dc14610213578063313ce5671461022857806342966c6814610253578063483a20b21461026d578063661884631461028e57806370a08231146102b2578063715018a6146102d357806379cc6790146102e85780638da5cb5b1461030c57806395d89b411461033d578063a9059cbb14610352578063d73dd62314610376578063dd62ed3e1461039a578063f2fde38b146103c1575b600080fd5b34801561010c57600080fd5b506101156103e2565b6040805160208082528351818301528351919283929083019185019080838360005b8381101561014f578181015183820152602001610137565b50505050905090810190601f16801561017c5780820380516001836020036101000a031916815260200191505b509250505060405180910390f35b34801561019657600080fd5b506101ae600160a060020a0360043516602435610419565b604080519115158252519081900360200190f35b3480156101ce57600080fd5b506101d761047f565b60408051918252519081900360200190f35b3480156101f557600080fd5b506101ae600160a060020a0360043581169060243516604435610485565b34801561021f57600080fd5b506101d76105fc565b34801561023457600080fd5b5061023d61060a565b6040805160ff9092168252519081900360200190f35b34801561025f57600080fd5b5061026b60043561060f565b005b34801561027957600080fd5b5061026b600160a060020a036004351661061c565b34801561029a57600080fd5b506101ae600160a060020a0360043516602435610652565b3480156102be57600080fd5b506101d7600160a060020a0360043516610742565b3480156102df57600080fd5b5061026b61075d565b3480156102f457600080fd5b5061026b600160a060020a03600435166024356107cb565b34801561031857600080fd5b50610321610861565b60408051600160a060020a039092168252519081900360200190f35b34801561034957600080fd5b50610115610870565b34801561035e57600080fd5b506101ae600160a060020a03600435166024356108a7565b34801561038257600080fd5b506101ae600160a060020a0360043516602435610988565b3480156103a657600080fd5b506101d7600160a060020a0360043581169060243516610a21565b3480156103cd57600080fd5b5061026b600160a060020a0360043516610a4c565b60408051808201909152600981527f48334f20546f6b656e0000000000000000000000000000000000000000000000602082015281565b336000818152600260209081526040808320600160a060020a038716808552908352818420869055815186815291519394909390927f8c5be1e5ebec7d5bd14f71427d1e84f3dd0314c0f7b2291e5b200ac8c7c3b925928290030190a350600192915050565b60015490565b6000600160a060020a038316151561049c57600080fd5b600160a060020a0384166000908152602081905260409020548211156104c157600080fd5b600160a060020a03841660009081526002602090815260408083203384529091529020548211156104f157600080fd5b600160a060020a03841660009081526020819052604090205461051a908363ffffffff610a6c16565b600160a060020a03808616600090815260208190526040808220939093559085168152205461054f908363ffffffff610a7e16565b600160a060020a03808516600090815260208181526040808320949094559187168152600282528281203382529091522054610591908363ffffffff610a6c16565b600160a060020a03808616600081815260026020908152604080832033845282529182902094909455805186815290519287169391927fddf252ad1be2c89b69c2b068fc378daa952ba7f163c4a11628f55a4df523b3ef929181900390910190a35060019392505050565b69021e19e0c9bab240000081565b601281565b6106193382610a91565b50565b600354600160a060020a0316331461063357600080fd5b6106478169021e19e0c9bab2400000610419565b151561061957600080fd5b336000908152600260209081526040808320600160a060020a0386168452909152812054808311156106a757336000908152600260209081526040808320600160a060020a03881684529091528120556106dc565b6106b7818463ffffffff610a6c16565b336000908152600260209081526040808320600160a060020a03891684529091529020555b336000818152600260209081526040808320600160a060020a0389168085529083529281902054815190815290519293927f8c5be1e5ebec7d5bd14f71427d1e84f3dd0314c0f7b2291e5b200ac8c7c3b925929181900390910190a35060019392505050565b600160a060020a031660009081526020819052604090205490565b600354600160a060020a0316331461077457600080fd5b600354604051600160a060020a03909116907ff8df31144d9c2f0f6b59d69b8b98abd5459d07f2742c4df920b25aae33c6482090600090a26003805473ffffffffffffffffffffffffffffffffffffffff19169055565b600160a060020a03821660009081526002602090815260408083203384529091529020548111156107fb57600080fd5b600160a060020a038216600090815260026020908152604080832033845290915290205461082f908263ffffffff610a6c16565b600160a060020a038316600090815260026020908152604080832033845290915290205561085d8282610a91565b5050565b600354600160a060020a031681565b60408051808201909152600381527f48334f0000000000000000000000000000000000000000000000000000000000602082015281565b6000600160a060020a03831615156108be57600080fd5b336000908152602081905260409020548211156108da57600080fd5b336000908152602081905260409020546108fa908363ffffffff610a6c16565b3360009081526020819052604080822092909255600160a060020a0385168152205461092c908363ffffffff610a7e16565b600160a060020a038416600081815260208181526040918290209390935580518581529051919233927fddf252ad1be2c89b69c2b068fc378daa952ba7f163c4a11628f55a4df523b3ef9281900390910190a350600192915050565b336000908152600260209081526040808320600160a060020a03861684529091528120546109bc908363ffffffff610a7e16565b336000818152600260209081526040808320600160a060020a0389168085529083529281902085905580519485525191937f8c5be1e5ebec7d5bd14f71427d1e84f3dd0314c0f7b2291e5b200ac8c7c3b925929081900390910190a350600192915050565b600160a060020a03918216600090815260026020908152604080832093909416825291909152205490565b600354600160a060020a03163314610a6357600080fd5b61061981610b92565b600082821115610a7857fe5b50900390565b81810182811015610a8b57fe5b92915050565b600160a060020a038216600090815260208190526040902054811115610ab657600080fd5b600160a060020a038216600090815260208190526040902054610adf908263ffffffff610a6c16565b600160a060020a038316600090815260208190526040902055600154610b0b908263ffffffff610a6c16565b600155604080518281529051600160a060020a038416917fcc16f5dbb4873280815c1ee09dbd06736cffcc184412cf7a71a0fdb75d397ca5919081900360200190a2604080518281529051600091600160a060020a038516917fddf252ad1be2c89b69c2b068fc378daa952ba7f163c4a11628f55a4df523b3ef9181900360200190a35050565b600160a060020a0381161515610ba757600080fd5b600354604051600160a060020a038084169216907f8be0079c531659141344cd1fd0a4f28419497f9722a3daafe3b4186f6b6457e090600090a36003805473ffffffffffffffffffffffffffffffffffffffff1916600160a060020a03929092169190911790555600a165627a7a72305820330ee60d9d977c1c55cb65b61c56197119098fb36b9dc5fb3e0a9fe783de2a9b0029",
  "source": "pragma solidity ^0.4.24;\n\n\nimport \"../node_modules/zeppelin-solidity/contracts/token/ERC20/StandardBurnableToken.sol\";\nimport \"../node_modules/zeppelin-solidity/contracts/ownership/Ownable.sol\";\n\n/**\n * @title SimpleToken\n * @dev Very simple ERC20 Token example, where all tokens are pre-assigned to the creator.\n * Note they can later distribute these tokens as they wish using `transfer` and other\n * `StandardToken` functions.\n */\ncontract H3O is StandardBurnableToken, Ownable {\n\n  string public constant name = \"H3O Token\"; // solium-disable-line uppercase\n  string public constant symbol = \"H3O\"; // solium-disable-line uppercase\n  uint8 public constant decimals = 18; // solium-disable-line uppercase\n\n  uint256 public constant INITIAL_SUPPLY = 10000 * (10 ** uint256(decimals));\n\n  /**\n   * @dev Constructor that gives msg.sender all of existing tokens.\n   */\n  constructor() public {\n    totalSupply_ = INITIAL_SUPPLY;\n    balances[msg.sender] = INITIAL_SUPPLY;\n    emit Transfer(address(0), msg.sender, INITIAL_SUPPLY);\n  }\n\n    /**\n   * Associates this token with a current crowdsale, giving the crowdsale\n   * an allowance of tokens from the crowdsale supply. This gives the\n   * crowdsale the ability to call transferFrom to transfer tokens to\n   * whomever has purchased them.\n   *\n   * @param _crowdSaleAddr The address of a crowdsale contract that will sell this token\n   */\n  function setCrowdsale(address _crowdSaleAddr) external onlyOwner {\n      require(approve(_crowdSaleAddr, INITIAL_SUPPLY));\n  }\n\n}",
  "sourcePath": "/Users/florianpircher/Documents/HydrominerCoin/contracts/H3O.sol",
  "compiler": {
    "name": "solc",
    "version": "0.4.24+commit.e67f0147.Emscripten.clang"
  },
  "schemaVersion": "2.0.1",
  "updatedAt": "2018-07-04T14:59:36.810Z"
}