{
  "contractName": "H3OCrowdsale",
  "abi": [
    {
      "constant": true,
      "inputs": [],
      "name": "hasClosed",
      "outputs": [
        {
          "name": "",
          "type": "bool"
        }
      ],
      "payable": false,
      "stateMutability": "view",
      "type": "function"
    },
    {
      "constant": false,
      "inputs": [
        {
          "name": "cbId",
          "type": "bytes32"
        },
        {
          "name": "result",
          "type": "string"
        }
      ],
      "name": "__callback",
      "outputs": [],
      "payable": false,
      "stateMutability": "nonpayable",
      "type": "function"
    },
    {
      "constant": true,
      "inputs": [],
      "name": "rate",
      "outputs": [
        {
          "name": "",
          "type": "uint256"
        }
      ],
      "payable": false,
      "stateMutability": "view",
      "type": "function"
    },
    {
      "constant": false,
      "inputs": [
        {
          "name": "myid",
          "type": "bytes32"
        },
        {
          "name": "result",
          "type": "string"
        },
        {
          "name": "proof",
          "type": "bytes"
        }
      ],
      "name": "__callback",
      "outputs": [],
      "payable": false,
      "stateMutability": "nonpayable",
      "type": "function"
    },
    {
      "constant": true,
      "inputs": [],
      "name": "weiRaised",
      "outputs": [
        {
          "name": "",
          "type": "uint256"
        }
      ],
      "payable": false,
      "stateMutability": "view",
      "type": "function"
    },
    {
      "constant": true,
      "inputs": [],
      "name": "closingTime",
      "outputs": [
        {
          "name": "",
          "type": "uint256"
        }
      ],
      "payable": false,
      "stateMutability": "view",
      "type": "function"
    },
    {
      "constant": true,
      "inputs": [],
      "name": "wallet",
      "outputs": [
        {
          "name": "",
          "type": "address"
        }
      ],
      "payable": false,
      "stateMutability": "view",
      "type": "function"
    },
    {
      "constant": true,
      "inputs": [],
      "name": "lastOraclizeCallback",
      "outputs": [
        {
          "name": "",
          "type": "uint256"
        }
      ],
      "payable": false,
      "stateMutability": "view",
      "type": "function"
    },
    {
      "constant": true,
      "inputs": [],
      "name": "tokenReward",
      "outputs": [
        {
          "name": "",
          "type": "address"
        }
      ],
      "payable": false,
      "stateMutability": "view",
      "type": "function"
    },
    {
      "constant": false,
      "inputs": [],
      "name": "renounceOwnership",
      "outputs": [],
      "payable": false,
      "stateMutability": "nonpayable",
      "type": "function"
    },
    {
      "constant": false,
      "inputs": [],
      "name": "instantUpdate",
      "outputs": [],
      "payable": true,
      "stateMutability": "payable",
      "type": "function"
    },
    {
      "constant": false,
      "inputs": [
        {
          "name": "_beneficiary",
          "type": "address"
        }
      ],
      "name": "removeFromWhitelist",
      "outputs": [],
      "payable": false,
      "stateMutability": "nonpayable",
      "type": "function"
    },
    {
      "constant": false,
      "inputs": [
        {
          "name": "_beneficiaries",
          "type": "address[]"
        }
      ],
      "name": "addManyToWhitelist",
      "outputs": [],
      "payable": false,
      "stateMutability": "nonpayable",
      "type": "function"
    },
    {
      "constant": true,
      "inputs": [],
      "name": "owner",
      "outputs": [
        {
          "name": "",
          "type": "address"
        }
      ],
      "payable": false,
      "stateMutability": "view",
      "type": "function"
    },
    {
      "constant": true,
      "inputs": [
        {
          "name": "",
          "type": "address"
        }
      ],
      "name": "whitelist",
      "outputs": [
        {
          "name": "",
          "type": "bool"
        }
      ],
      "payable": false,
      "stateMutability": "view",
      "type": "function"
    },
    {
      "constant": false,
      "inputs": [],
      "name": "update",
      "outputs": [],
      "payable": true,
      "stateMutability": "payable",
      "type": "function"
    },
    {
      "constant": true,
      "inputs": [],
      "name": "tokensLeft",
      "outputs": [
        {
          "name": "",
          "type": "uint256"
        }
      ],
      "payable": false,
      "stateMutability": "view",
      "type": "function"
    },
    {
      "constant": true,
      "inputs": [],
      "name": "openingTime",
      "outputs": [
        {
          "name": "",
          "type": "uint256"
        }
      ],
      "payable": false,
      "stateMutability": "view",
      "type": "function"
    },
    {
      "constant": true,
      "inputs": [],
      "name": "stage",
      "outputs": [
        {
          "name": "",
          "type": "uint8"
        }
      ],
      "payable": false,
      "stateMutability": "view",
      "type": "function"
    },
    {
      "constant": false,
      "inputs": [
        {
          "name": "_beneficiary",
          "type": "address"
        }
      ],
      "name": "addToWhitelist",
      "outputs": [],
      "payable": false,
      "stateMutability": "nonpayable",
      "type": "function"
    },
    {
      "constant": false,
      "inputs": [
        {
          "name": "_newOwner",
          "type": "address"
        }
      ],
      "name": "transferOwnership",
      "outputs": [],
      "payable": false,
      "stateMutability": "nonpayable",
      "type": "function"
    },
    {
      "constant": true,
      "inputs": [],
      "name": "token",
      "outputs": [
        {
          "name": "",
          "type": "address"
        }
      ],
      "payable": false,
      "stateMutability": "view",
      "type": "function"
    },
    {
      "constant": true,
      "inputs": [],
      "name": "ethInCents",
      "outputs": [
        {
          "name": "",
          "type": "uint256"
        }
      ],
      "payable": false,
      "stateMutability": "view",
      "type": "function"
    },
    {
      "inputs": [
        {
          "name": "_openingTime",
          "type": "uint256"
        },
        {
          "name": "_closingTime",
          "type": "uint256"
        },
        {
          "name": "_wallet",
          "type": "address"
        },
        {
          "name": "_token",
          "type": "address"
        },
        {
          "name": "addressOfTokenUsedAsReward",
          "type": "address"
        },
        {
          "name": "_initialEthUsdCentsPrice",
          "type": "uint256"
        }
      ],
      "payable": false,
      "stateMutability": "nonpayable",
      "type": "constructor"
    },
    {
      "payable": true,
      "stateMutability": "payable",
      "type": "fallback"
    },
    {
      "anonymous": false,
      "inputs": [
        {
          "indexed": false,
          "name": "text",
          "type": "string"
        }
      ],
      "name": "EthTransferred",
      "type": "event"
    },
    {
      "anonymous": false,
      "inputs": [
        {
          "indexed": false,
          "name": "description",
          "type": "string"
        }
      ],
      "name": "LogOraclizeQuery",
      "type": "event"
    },
    {
      "anonymous": false,
      "inputs": [
        {
          "indexed": false,
          "name": "price",
          "type": "string"
        }
      ],
      "name": "LogPriceUpdated",
      "type": "event"
    },
    {
      "anonymous": false,
      "inputs": [
        {
          "indexed": true,
          "name": "previousOwner",
          "type": "address"
        }
      ],
      "name": "OwnershipRenounced",
      "type": "event"
    },
    {
      "anonymous": false,
      "inputs": [
        {
          "indexed": true,
          "name": "previousOwner",
          "type": "address"
        },
        {
          "indexed": true,
          "name": "newOwner",
          "type": "address"
        }
      ],
      "name": "OwnershipTransferred",
      "type": "event"
    },
    {
      "anonymous": false,
      "inputs": [
        {
          "indexed": true,
          "name": "purchaser",
          "type": "address"
        },
        {
          "indexed": true,
          "name": "beneficiary",
          "type": "address"
        },
        {
          "indexed": false,
          "name": "value",
          "type": "uint256"
        },
        {
          "indexed": false,
          "name": "amount",
          "type": "uint256"
        }
      ],
      "name": "TokenPurchase",
      "type": "event"
    },
    {
      "constant": false,
      "inputs": [
        {
          "name": "_beneficiary",
          "type": "address"
        }
      ],
      "name": "buyTokens",
      "outputs": [],
      "payable": true,
      "stateMutability": "payable",
      "type": "function"
    },
    {
      "constant": false,
      "inputs": [
        {
          "name": "_beneficiary",
          "type": "address"
        },
        {
          "name": "_amount",
          "type": "uint256"
        }
      ],
      "name": "buyTokensOtherCurrencies",
      "outputs": [],
      "payable": false,
      "stateMutability": "nonpayable",
      "type": "function"
    },
    {
      "constant": false,
      "inputs": [
        {
          "name": "_wallet",
          "type": "address"
        }
      ],
      "name": "endCrowdsale",
      "outputs": [],
      "payable": false,
      "stateMutability": "nonpayable",
      "type": "function"
    },
    {
      "constant": true,
      "inputs": [],
      "name": "hasEnded",
      "outputs": [
        {
          "name": "",
          "type": "uint256"
        }
      ],
      "payable": false,
      "stateMutability": "view",
      "type": "function"
    }
  ],
  "bytecode": "0x60806040526013805460ff191690553480156200001b57600080fd5b5060405160c0806200373083398101604090815281516020830151918301516060840151608085015160a09095015192949192909190858560018686600160a060020a03821615156200006d57600080fd5b600160a060020a03811615156200008357600080fd5b60029290925560018054600160a060020a03928316600160a060020a0319918216179091556000805493909216928116929092179055600480549091163317905581811015620000d257600080fd5b6006919091556007556000600e5560088054600160a060020a031916731583a772402d7239a497c643aea1e53a74f1583617905562000119640100000000620001d4810204565b600d81905560118054600160a060020a031916600160a060020a038481169190911791829055604080517f2ff2e9dc00000000000000000000000000000000000000000000000000000000815290519290911691632ff2e9dc916004808201926020929091908290030181600087803b1580156200019657600080fd5b505af1158015620001ab573d6000803e3d6000fd5b505050506040513d6020811015620001c257600080fd5b50516012555062000f49945050505050565b6000620001e964010000000062000356810204565b1515620001f557600080fd5b601054156200020357600080fd5b6040805160208082526031908201527f52657175657374696e67204f7261636c697a6520746f207375626d6974206c61818301527f7465737420455448555344207072696365000000000000000000000000000000606082015290517f0415a732c27dc65a8318b1f49677f1d76eb7365d60653ee494ed0897ef70abc89181900360800190a162000337603c6040805190810160405280600381526020017f55524c0000000000000000000000000000000000000000000000000000000000815250606060405190810160405280603081526020017f6a736f6e2868747470733a2f2f6170692e696e667572612e696f2f76312f746981526020017f636b65722f657468757364292e61736b00000000000000000000000000000000815250620003ac640100000000026401000000009004565b6000818152600f60205260409020805460ff1916600117905560105550565b60408051808201909152600381527f55524c00000000000000000000000000000000000000000000000000000000006020820152600090303190620003a49064010000000062000804810204565b111590505b90565b6008546000908190600160a060020a03161580620003e75750600854620003e590600160a060020a031664010000000062000ac3810204565b155b15620004045762000402600064010000000062000ac7810204565b505b600860009054906101000a9004600160a060020a0316600160a060020a03166338cc48316040518163ffffffff167c0100000000000000000000000000000000000000000000000000000000028152600401602060405180830381600087803b1580156200047157600080fd5b505af115801562000486573d6000803e3d6000fd5b505050506040513d60208110156200049d57600080fd5b5051600954600160a060020a039081169116146200057057600860009054906101000a9004600160a060020a0316600160a060020a03166338cc48316040518163ffffffff167c0100000000000000000000000000000000000000000000000000000000028152600401602060405180830381600087803b1580156200052257600080fd5b505af115801562000537573d6000803e3d6000fd5b505050506040513d60208110156200054e57600080fd5b505160098054600160a060020a031916600160a060020a039092169190911790555b6009546040517f524f3889000000000000000000000000000000000000000000000000000000008152602060048201818152875160248401528751600160a060020a039094169363524f388993899383926044909201919085019080838360005b83811015620005eb578181015183820152602001620005d1565b50505050905090810190601f168015620006195780820380516001836020036101000a031916815260200191505b5092505050602060405180830381600087803b1580156200063957600080fd5b505af11580156200064e573d6000803e3d6000fd5b505050506040513d60208110156200066557600080fd5b50519050670de0b6b3a764000062030d403a02018111156200068b5760009150620007fc565b6009546040517fadf59f9900000000000000000000000000000000000000000000000000000000815260048101878152606060248301908152875160648401528751600160a060020a039094169363adf59f999386938b938b938b936044810191608490910190602087019080838360005b8381101562000717578181015183820152602001620006fd565b50505050905090810190601f168015620007455780820380516001836020036101000a031916815260200191505b50838103825284518152845160209182019186019080838360005b838110156200077a57818101518382015260200162000760565b50505050905090810190601f168015620007a85780820380516001836020036101000a031916815260200191505b50955050505050506020604051808303818588803b158015620007ca57600080fd5b505af1158015620007df573d6000803e3d6000fd5b50505050506040513d6020811015620007f757600080fd5b505191505b509392505050565b600854600090600160a060020a031615806200083d57506008546200083b90600160a060020a031664010000000062000ac3810204565b155b156200085a5762000858600064010000000062000ac7810204565b505b600860009054906101000a9004600160a060020a0316600160a060020a03166338cc48316040518163ffffffff167c0100000000000000000000000000000000000000000000000000000000028152600401602060405180830381600087803b158015620008c757600080fd5b505af1158015620008dc573d6000803e3d6000fd5b505050506040513d6020811015620008f357600080fd5b5051600954600160a060020a03908116911614620009c657600860009054906101000a9004600160a060020a0316600160a060020a03166338cc48316040518163ffffffff167c0100000000000000000000000000000000000000000000000000000000028152600401602060405180830381600087803b1580156200097857600080fd5b505af11580156200098d573d6000803e3d6000fd5b505050506040513d6020811015620009a457600080fd5b505160098054600160a060020a031916600160a060020a039092169190911790555b6009546040517f524f3889000000000000000000000000000000000000000000000000000000008152602060048201818152855160248401528551600160a060020a039094169363524f388993879383926044909201919085019080838360005b8381101562000a4157818101518382015260200162000a27565b50505050905090810190601f16801562000a6f5780820380516001836020036101000a031916815260200191505b5092505050602060405180830381600087803b15801562000a8f57600080fd5b505af115801562000aa4573d6000803e3d6000fd5b505050506040513d602081101562000abb57600080fd5b505192915050565b3b90565b600062000adc64010000000062000ae2810204565b92915050565b60008062000b0d731d3b2638a7cc9f2cb3d298a3da7a90b67e5506ed64010000000062000ac3810204565b111562000b8b5760088054600160a060020a031916731d3b2638a7cc9f2cb3d298a3da7a90b67e5506ed17905560408051808201909152600b81527f6574685f6d61696e6e6574000000000000000000000000000000000000000000602082015262000b829064010000000062000e8e810204565b506001620003a9565b600062000bb573c03a2615d5efaf5f49f60b7bb6583eaec212fdf164010000000062000ac3810204565b111562000c2a5760088054600160a060020a03191673c03a2615d5efaf5f49f60b7bb6583eaec212fdf117905560408051808201909152600c81527f6574685f726f707374656e330000000000000000000000000000000000000000602082015262000b829064010000000062000e8e810204565b600062000c5473b7a07bcf2ba2f2703b24c0691b5278999c59ac7e64010000000062000ac3810204565b111562000cc95760088054600160a060020a03191673b7a07bcf2ba2f2703b24c0691b5278999c59ac7e17905560408051808201909152600981527f6574685f6b6f76616e0000000000000000000000000000000000000000000000602082015262000b829064010000000062000e8e810204565b600062000cf373146500cfd35b22e4a392fe0adc06de1a1368ed4864010000000062000ac3810204565b111562000d685760088054600160a060020a03191673146500cfd35b22e4a392fe0adc06de1a1368ed4817905560408051808201909152600b81527f6574685f72696e6b656279000000000000000000000000000000000000000000602082015262000b829064010000000062000e8e810204565b600062000d92736f485c8bf6fc43ea212e93bbf8ce046c7f1cb47564010000000062000ac3810204565b111562000dc8575060088054600160a060020a031916736f485c8bf6fc43ea212e93bbf8ce046c7f1cb4751790556001620003a9565b600062000df27320e12a1f859b3feae5fb2a0a32c18f5a65555bbf64010000000062000ac3810204565b111562000e28575060088054600160a060020a0319167320e12a1f859b3feae5fb2a0a32c18f5a65555bbf1790556001620003a9565b600062000e527351efaf4c8b3c9afbd5ab9f4bbc82784ab6ef8faa64010000000062000ac3810204565b111562000e88575060088054600160a060020a0319167351efaf4c8b3c9afbd5ab9f4bbc82784ab6ef8faa1790556001620003a9565b50600090565b805162000ea390600a90602084019062000ea7565b5050565b828054600181600116156101000203166002900490600052602060002090601f016020900481019282601f1062000eea57805160ff191683800117855562000f1a565b8280016001018555821562000f1a579182015b8281111562000f1a57825182559160200191906001019062000efd565b5062000f2892915062000f2c565b5090565b620003a991905b8082111562000f28576000815560010162000f33565b6127d78062000f596000396000f3006080604052600436106101455763ffffffff60e060020a6000350416631515bc2b81146101cd57806327dc297e146101f65780632c4e722e1461025457806338bbfa501461027b5780634042b66f146103175780634b6753bc1461032c578063521eb27314610341578063563511a71461037257806360fd19ba146103935780636e66f6e9146103a8578063715018a6146103bd57806381592aab146103d25780638ab1d681146103da5780638c10671c146103fb5780638da5cb5b1461041b5780639b19251a14610430578063a2e6204514610451578063b31f8f9314610459578063b7a8807c1461046e578063c040e6b814610483578063e43252d7146104bc578063ec8ac4d8146104dd578063ecb70fb7146104f1578063f2fde38b14610506578063f453038f14610527578063fc0c546a1461054b578063fe31482a14610560575b635b37adb042116101605761015b60005b610575565b6101c2565b635b37adb0421180156101775750635b37b0084211155b156101865761015b6001610156565b635b37b0084211801561019d5750635b37b2604211155b156101ac5761015b6002610156565b635b37b2604211156101c2576101c26003610156565b6101cb336106cd565b005b3480156101d957600080fd5b506101e2610893565b604080519115158252519081900360200190f35b34801561020257600080fd5b5060408051602060046024803582810135601f81018590048502860185019096528585526101cb95833595369560449491939091019190819084018382808284375094975061089c9650505050505050565b34801561026057600080fd5b506102696109c0565b60408051918252519081900360200190f35b34801561028757600080fd5b5060408051602060046024803582810135601f81018590048502860185019096528585526101cb95833595369560449491939091019190819084018382808284375050604080516020601f89358b018035918201839004830284018301909452808352979a99988101979196509182019450925082915084018382808284375094975061088e9650505050505050565b34801561032357600080fd5b506102696109c6565b34801561033857600080fd5b506102696109cc565b34801561034d57600080fd5b506103566109d2565b60408051600160a060020a039092168252519081900360200190f35b34801561037e57600080fd5b506101cb600160a060020a03600435166109e1565b34801561039f57600080fd5b50610269610b68565b3480156103b457600080fd5b50610356610b6e565b3480156103c957600080fd5b506101cb610b7d565b6101cb610bde565b3480156103e657600080fd5b506101cb600160a060020a0360043516610d19565b34801561040757600080fd5b506101cb6004803560248101910135610d51565b34801561042757600080fd5b50610356610dc2565b34801561043c57600080fd5b506101e2600160a060020a0360043516610dd1565b6101cb610de6565b34801561046557600080fd5b50610269610f33565b34801561047a57600080fd5b50610269610f39565b34801561048f57600080fd5b50610498610f3f565b604051808260038111156104a857fe5b60ff16815260200191505060405180910390f35b3480156104c857600080fd5b506101cb600160a060020a0360043516610f48565b6101cb600160a060020a03600435166106cd565b3480156104fd57600080fd5b50610269610f83565b34801561051257600080fd5b506101cb600160a060020a0360043516610f89565b34801561053357600080fd5b506101cb600160a060020a0360043516602435610fac565b34801561055757600080fd5b506103566113c2565b34801561056c57600080fd5b506102696113d1565b6000811515610586575060006105b5565b8160011415610597575060016105b5565b81600214156105a8575060026105b5565b81600314156105b5575060035b6013805482919060ff191660018360038111156105ce57fe5b0217905550600060135460ff1660038111156105e657fe5b14156106215761061c6106176103e861060b6078600d546113d790919063ffffffff16565b9063ffffffff61140616565b61141b565b6106c9565b600160135460ff16600381111561063457fe5b14156106595761061c6106176103e861060b6073600d546113d790919063ffffffff16565b600260135460ff16600381111561066c57fe5b14156106915761061c6106176103e861060b606e600d546113d790919063ffffffff16565b600360135460ff1660038111156106a457fe5b14156106c9576106c96106176103e861060b6069600d546113d790919063ffffffff16565b5050565b600080600160a060020a03831615156106e557600080fd5b3491506106f28383611420565b60025461070690839063ffffffff6113d716565b60035490915061071c908363ffffffff61144916565b600355601154604080517f8da5cb5b0000000000000000000000000000000000000000000000000000000081529051600160a060020a03909216916323b872dd918391638da5cb5b916004808201926020929091908290030181600087803b15801561078757600080fd5b505af115801561079b573d6000803e3d6000fd5b505050506040513d60208110156107b157600080fd5b50516040805160e060020a63ffffffff8516028152600160a060020a0392831660048201529187166024830152604482018590525160648083019260209291908290030181600087803b15801561080757600080fd5b505af115801561081b573d6000803e3d6000fd5b505050506040513d602081101561083157600080fd5b5051151561083e57600080fd5b60408051838152602081018390528151600160a060020a0386169233927f623b3804fa71d67900d064613da8f94b9617215ee90799290593e1745087ad18929081900390910190a361088e611456565b505050565b60075442115b90565b6108a461148f565b600160a060020a031633146108b857600080fd5b6000828152600f602052604090205460ff1615156108d557600080fd5b6108e0816002611684565b600d556000828152600f60209081526040808320805460ff1916905543600e55805182815284518184015284517f71f1a5645e51a2da828ffcf79cc17da88eb25e1bca8b9dced23210847a4769c19486949293849390840192908601918190849084905b8381101561095c578181015183820152602001610944565b50505050905090810190601f1680156109895780820380516001836020036101000a031916815260200191505b509250505060405180910390a160105482141561061c5760006010556109ad61183e565b15156109b8576106c9565b6106c9610de6565b60025481565b60035481565b60075481565b600154600160a060020a031681565b600454600160a060020a031633146109f857600080fd5b601154604080517f8da5cb5b0000000000000000000000000000000000000000000000000000000081529051600160a060020a03909216916323b872dd918391638da5cb5b916004808201926020929091908290030181600087803b158015610a6057600080fd5b505af1158015610a74573d6000803e3d6000fd5b505050506040513d6020811015610a8a57600080fd5b50516012546040805160e060020a63ffffffff8616028152600160a060020a039384166004820152928616602484015260448301919091525160648083019260209291908290030181600087803b158015610ae457600080fd5b505af1158015610af8573d6000803e3d6000fd5b505050506040513d6020811015610b0e57600080fd5b50511515610b1b57600080fd5b6012546040805182815260208101929092528051600160a060020a0384169283927f623b3804fa71d67900d064613da8f94b9617215ee90799290593e1745087ad1892918290030190a350565b600e5481565b601154600160a060020a031681565b600454600160a060020a03163314610b9457600080fd5b600454604051600160a060020a03909116907ff8df31144d9c2f0f6b59d69b8b98abd5459d07f2742c4df920b25aae33c6482090600090a260048054600160a060020a0319169055565b6000610be8611879565b1515610bf357600080fd5b604080516020808252603b908201527f52657175657374696e67204f7261636c697a6520746f207375626d6974206c61818301527f746573742045544855534420707269636520696e7374616e746c790000000000606082015290517f0415a732c27dc65a8318b1f49677f1d76eb7365d60653ee494ed0897ef70abc89181900360800190a1610cfd60408051908101604052806003815260200160ea60020a6215549302815250606060405190810160405280603081526020017f6a736f6e2868747470733a2f2f6170692e696e667572612e696f2f76312f746981526020017f636b65722f657468757364292e61736b000000000000000000000000000000008152506118a3565b6000908152600f60205260409020805460ff1916600117905550565b600454600160a060020a03163314610d3057600080fd5b600160a060020a03166000908152600560205260409020805460ff19169055565b600454600090600160a060020a03163314610d6b57600080fd5b5060005b8181101561088e57600160056000858585818110610d8957fe5b60209081029290920135600160a060020a0316835250810191909152604001600020805460ff1916911515919091179055600101610d6f565b600454600160a060020a031681565b60056020526000908152604090205460ff1681565b6000610df061183e565b1515610dfb57600080fd5b60105415610e0857600080fd5b6040805160208082526031908201527f52657175657374696e67204f7261636c697a6520746f207375626d6974206c61818301527f7465737420455448555344207072696365000000000000000000000000000000606082015290517f0415a732c27dc65a8318b1f49677f1d76eb7365d60653ee494ed0897ef70abc89181900360800190a1610f14603c60408051908101604052806003815260200160ea60020a6215549302815250606060405190810160405280603081526020017f6a736f6e2868747470733a2f2f6170692e696e667572612e696f2f76312f746981526020017f636b65722f657468757364292e61736b00000000000000000000000000000000815250611c9a565b6000818152600f60205260409020805460ff1916600117905560105550565b60125481565b60065481565b60135460ff1681565b600454600160a060020a03163314610f5f57600080fd5b600160a060020a03166000908152600560205260409020805460ff19166001179055565b60125490565b600454600160a060020a03163314610fa057600080fd5b610fa981612090565b50565b600454600160a060020a03163314610fc357600080fd5b61105382601160009054906101000a9004600160a060020a0316600160a060020a031663313ce5676040518163ffffffff1660e060020a028152600401602060405180830381600087803b15801561101a57600080fd5b505af115801561102e573d6000803e3d6000fd5b505050506040513d602081101561104457600080fd5b505160ff16600a0a8302611420565b601154604080517f8da5cb5b0000000000000000000000000000000000000000000000000000000081529051600160a060020a03909216916323b872dd918391638da5cb5b916004808201926020929091908290030181600087803b1580156110bb57600080fd5b505af11580156110cf573d6000803e3d6000fd5b505050506040513d60208110156110e557600080fd5b50516011546040805160e060020a63313ce56702815290518792600160a060020a03169163313ce5679160048083019260209291908290030181600087803b15801561113057600080fd5b505af1158015611144573d6000803e3d6000fd5b505050506040513d602081101561115a57600080fd5b50516040805160e060020a63ffffffff8716028152600160a060020a03948516600482015292909316602483015260ff16600a0a85026044820152905160648083019260209291908290030181600087803b1580156111b857600080fd5b505af11580156111cc573d6000803e3d6000fd5b505050506040513d60208110156111e257600080fd5b505115156111ef57600080fd5b6011546040805160e060020a63313ce567028152905161127d92600160a060020a03169163313ce5679160048083019260209291908290030181600087803b15801561123a57600080fd5b505af115801561124e573d6000803e3d6000fd5b505050506040513d602081101561126457600080fd5b50516012549060ff16600a0a830263ffffffff61210116565b6012556011546040805160e060020a63313ce5670281529051600160a060020a038086169384937f623b3804fa71d67900d064613da8f94b9617215ee90799290593e1745087ad1893919092169163313ce5679160048083019260209291908290030181600087803b1580156112f257600080fd5b505af1158015611306573d6000803e3d6000fd5b505050506040513d602081101561131c57600080fd5b50516011546040805160e060020a63313ce567028152905160ff909316600a0a870292600160a060020a039092169163313ce567916004808201926020929091908290030181600087803b15801561137357600080fd5b505af1158015611387573d6000803e3d6000fd5b505050506040513d602081101561139d57600080fd5b50516040805192835260ff909116600a0a860260208301528051918290030190a35050565b600054600160a060020a031681565b600d5481565b60008215156113e857506000611400565b508181028183828115156113f857fe5b041461140057fe5b92915050565b6000818381151561141357fe5b049392505050565b600255565b600654421015801561143457506007544211155b151561143f57600080fd5b6106c98282612113565b8181018281101561140057fe5b600154604051600160a060020a03909116903480156108fc02916000818181858888f19350505050158015610fa9573d6000803e3d6000fd5b600854600090600160a060020a031615806114bc57506008546114ba90600160a060020a0316612146565b155b156114cd576114cb600061214a565b505b600860009054906101000a9004600160a060020a0316600160a060020a03166338cc48316040518163ffffffff1660e060020a028152600401602060405180830381600087803b15801561152057600080fd5b505af1158015611534573d6000803e3d6000fd5b505050506040513d602081101561154a57600080fd5b5051600954600160a060020a0390811691161461160057600860009054906101000a9004600160a060020a0316600160a060020a03166338cc48316040518163ffffffff1660e060020a028152600401602060405180830381600087803b1580156115b457600080fd5b505af11580156115c8573d6000803e3d6000fd5b505050506040513d60208110156115de57600080fd5b505160098054600160a060020a031916600160a060020a039092169190911790555b600960009054906101000a9004600160a060020a0316600160a060020a031663c281d19e6040518163ffffffff1660e060020a028152600401602060405180830381600087803b15801561165357600080fd5b505af1158015611667573d6000803e3d6000fd5b505050506040513d602081101561167d57600080fd5b5051905090565b6000828180805b83518110156118215783517f3000000000000000000000000000000000000000000000000000000000000000908590839081106116c457fe5b90602001015160f860020a900460f860020a027effffffffffffffffffffffffffffffffffffffffffffffffffffffffffffff19161015801561176a575083517f39000000000000000000000000000000000000000000000000000000000000009085908390811061173257fe5b90602001015160f860020a900460f860020a027effffffffffffffffffffffffffffffffffffffffffffffffffffffffffffff191611155b156117c35781156117895785151561178157611821565b600019909501945b600a830292506030848281518110151561179f57fe5b90602001015160f860020a900460f860020a0260f860020a90040383019250611819565b83818151811015156117d157fe5b90602001015160f860020a900460f860020a027effffffffffffffffffffffffffffffffffffffffffffffffffffffffffffff1916602e60f860020a02141561181957600191505b60010161168b565b60008611156118335785600a0a830292505b509095945050505050565b600030600160a060020a03163161187260408051908101604052806003815260200160ea60020a6215549302815250612154565b1115905090565b60003461187260408051908101604052806003815260200160ea60020a6215549302815250612154565b6008546000908190600160a060020a031615806118d257506008546118d090600160a060020a0316612146565b155b156118e3576118e1600061214a565b505b600860009054906101000a9004600160a060020a0316600160a060020a03166338cc48316040518163ffffffff1660e060020a028152600401602060405180830381600087803b15801561193657600080fd5b505af115801561194a573d6000803e3d6000fd5b505050506040513d602081101561196057600080fd5b5051600954600160a060020a03908116911614611a1657600860009054906101000a9004600160a060020a0316600160a060020a03166338cc48316040518163ffffffff1660e060020a028152600401602060405180830381600087803b1580156119ca57600080fd5b505af11580156119de573d6000803e3d6000fd5b505050506040513d60208110156119f457600080fd5b505160098054600160a060020a031916600160a060020a039092169190911790555b6009546040517f524f3889000000000000000000000000000000000000000000000000000000008152602060048201818152875160248401528751600160a060020a039094169363524f388993899383926044909201919085019080838360005b83811015611a8f578181015183820152602001611a77565b50505050905090810190601f168015611abc5780820380516001836020036101000a031916815260200191505b5092505050602060405180830381600087803b158015611adb57600080fd5b505af1158015611aef573d6000803e3d6000fd5b505050506040513d6020811015611b0557600080fd5b50519050670de0b6b3a764000062030d403a0201811115611b295760009150611c93565b6009546040517fadf59f99000000000000000000000000000000000000000000000000000000008152600060048201818152606060248401908152885160648501528851600160a060020a039095169463adf59f99948794938b938b939192909160448201916084019060208701908083838b5b83811015611bb5578181015183820152602001611b9d565b50505050905090810190601f168015611be25780820380516001836020036101000a031916815260200191505b50838103825284518152845160209182019186019080838360005b83811015611c15578181015183820152602001611bfd565b50505050905090810190601f168015611c425780820380516001836020036101000a031916815260200191505b50955050505050506020604051808303818588803b158015611c6357600080fd5b505af1158015611c77573d6000803e3d6000fd5b50505050506040513d6020811015611c8e57600080fd5b505191505b5092915050565b6008546000908190600160a060020a03161580611cc95750600854611cc790600160a060020a0316612146565b155b15611cda57611cd8600061214a565b505b600860009054906101000a9004600160a060020a0316600160a060020a03166338cc48316040518163ffffffff1660e060020a028152600401602060405180830381600087803b158015611d2d57600080fd5b505af1158015611d41573d6000803e3d6000fd5b505050506040513d6020811015611d5757600080fd5b5051600954600160a060020a03908116911614611e0d57600860009054906101000a9004600160a060020a0316600160a060020a03166338cc48316040518163ffffffff1660e060020a028152600401602060405180830381600087803b158015611dc157600080fd5b505af1158015611dd5573d6000803e3d6000fd5b505050506040513d6020811015611deb57600080fd5b505160098054600160a060020a031916600160a060020a039092169190911790555b6009546040517f524f3889000000000000000000000000000000000000000000000000000000008152602060048201818152875160248401528751600160a060020a039094169363524f388993899383926044909201919085019080838360005b83811015611e86578181015183820152602001611e6e565b50505050905090810190601f168015611eb35780820380516001836020036101000a031916815260200191505b5092505050602060405180830381600087803b158015611ed257600080fd5b505af1158015611ee6573d6000803e3d6000fd5b505050506040513d6020811015611efc57600080fd5b50519050670de0b6b3a764000062030d403a0201811115611f205760009150612088565b6009546040517fadf59f9900000000000000000000000000000000000000000000000000000000815260048101878152606060248301908152875160648401528751600160a060020a039094169363adf59f999386938b938b938b936044810191608490910190602087019080838360005b83811015611faa578181015183820152602001611f92565b50505050905090810190601f168015611fd75780820380516001836020036101000a031916815260200191505b50838103825284518152845160209182019186019080838360005b8381101561200a578181015183820152602001611ff2565b50505050905090810190601f1680156120375780820380516001836020036101000a031916815260200191505b50955050505050506020604051808303818588803b15801561205857600080fd5b505af115801561206c573d6000803e3d6000fd5b50505050506040513d602081101561208357600080fd5b505191505b509392505050565b600160a060020a03811615156120a557600080fd5b600454604051600160a060020a038084169216907f8be0079c531659141344cd1fd0a4f28419497f9722a3daafe3b4186f6b6457e090600090a360048054600160a060020a031916600160a060020a0392909216919091179055565b60008282111561210d57fe5b50900390565b600160a060020a038216600090815260056020526040902054829060ff16151561213c57600080fd5b61088e83836123bc565b3b90565b60006114006123dd565b600854600090600160a060020a03161580612181575060085461217f90600160a060020a0316612146565b155b1561219257612190600061214a565b505b600860009054906101000a9004600160a060020a0316600160a060020a03166338cc48316040518163ffffffff1660e060020a028152600401602060405180830381600087803b1580156121e557600080fd5b505af11580156121f9573d6000803e3d6000fd5b505050506040513d602081101561220f57600080fd5b5051600954600160a060020a039081169116146122c557600860009054906101000a9004600160a060020a0316600160a060020a03166338cc48316040518163ffffffff1660e060020a028152600401602060405180830381600087803b15801561227957600080fd5b505af115801561228d573d6000803e3d6000fd5b505050506040513d60208110156122a357600080fd5b505160098054600160a060020a031916600160a060020a039092169190911790555b6009546040517f524f3889000000000000000000000000000000000000000000000000000000008152602060048201818152855160248401528551600160a060020a039094169363524f388993879383926044909201919085019080838360005b8381101561233e578181015183820152602001612326565b50505050905090810190601f16801561236b5780820380516001836020036101000a031916815260200191505b5092505050602060405180830381600087803b15801561238a57600080fd5b505af115801561239e573d6000803e3d6000fd5b505050506040513d60208110156123b457600080fd5b505192915050565b600160a060020a03821615156123d157600080fd5b8015156106c957600080fd5b6000806123fd731d3b2638a7cc9f2cb3d298a3da7a90b67e5506ed612146565b111561246e5760088054600160a060020a031916731d3b2638a7cc9f2cb3d298a3da7a90b67e5506ed17905560408051808201909152600b81527f6574685f6d61696e6e6574000000000000000000000000000000000000000000602082015261246690612705565b506001610899565b600061248d73c03a2615d5efaf5f49f60b7bb6583eaec212fdf1612146565b11156124f65760088054600160a060020a03191673c03a2615d5efaf5f49f60b7bb6583eaec212fdf117905560408051808201909152600c81527f6574685f726f707374656e330000000000000000000000000000000000000000602082015261246690612705565b600061251573b7a07bcf2ba2f2703b24c0691b5278999c59ac7e612146565b111561257e5760088054600160a060020a03191673b7a07bcf2ba2f2703b24c0691b5278999c59ac7e17905560408051808201909152600981527f6574685f6b6f76616e0000000000000000000000000000000000000000000000602082015261246690612705565b600061259d73146500cfd35b22e4a392fe0adc06de1a1368ed48612146565b11156126065760088054600160a060020a03191673146500cfd35b22e4a392fe0adc06de1a1368ed4817905560408051808201909152600b81527f6574685f72696e6b656279000000000000000000000000000000000000000000602082015261246690612705565b6000612625736f485c8bf6fc43ea212e93bbf8ce046c7f1cb475612146565b1115612659575060088054600160a060020a031916736f485c8bf6fc43ea212e93bbf8ce046c7f1cb4751790556001610899565b60006126787320e12a1f859b3feae5fb2a0a32c18f5a65555bbf612146565b11156126ac575060088054600160a060020a0319167320e12a1f859b3feae5fb2a0a32c18f5a65555bbf1790556001610899565b60006126cb7351efaf4c8b3c9afbd5ab9f4bbc82784ab6ef8faa612146565b11156126ff575060088054600160a060020a0319167351efaf4c8b3c9afbd5ab9f4bbc82784ab6ef8faa1790556001610899565b50600090565b80516106c990600a906020840190828054600181600116156101000203166002900490600052602060002090601f016020900481019282601f1061275457805160ff1916838001178555612781565b82800160010185558215612781579182015b82811115612781578251825591602001919060010190612766565b5061278d929150612791565b5090565b61089991905b8082111561278d57600081556001016127975600a165627a7a72305820653b9fa2ab8ca532aac18f0a1ece86f80fd7e0d912a76963d06b4059cdfe9fa10029",
  "source": "pragma solidity ^0.4.24;\n\nimport './H3O.sol';\nimport '../node_modules/zeppelin-solidity/contracts/crowdsale/validation/WhitelistedCrowdsale.sol';\nimport '../node_modules/zeppelin-solidity/contracts/crowdsale/validation/TimedCrowdsale.sol';\nimport '../node_modules/zeppelin-solidity/contracts/math/SafeMath.sol';\nimport \"./ETHUSD.sol\";\n\ncontract H3OCrowdsale is WhitelistedCrowdsale, TimedCrowdsale, ETHUSD {\n\n  using SafeMath for uint256;\n\n  //The Token beeing sold\n  H3O public tokenReward;\n\n  uint256 public tokensLeft;\n\n  // ICO Stage\n  // ============\n  enum CrowdsaleStage { Stage1, Stage2, Stage3, Stage4 }\n  CrowdsaleStage public stage = CrowdsaleStage.Stage1; // By default it's Stage1\n  // =============\n\n\n  // Events\n  event EthTransferred(string text);\n\n\n  // Constructor\n  // ============\n  function H3OCrowdsale(uint256 _openingTime, uint256 _closingTime, address _wallet, StandardBurnableToken _token, address addressOfTokenUsedAsReward, uint256 _initialEthUsdCentsPrice) TimedCrowdsale(_openingTime, _closingTime) \n    Crowdsale(1, _wallet, _token) public {\n      ethInCents = _initialEthUsdCentsPrice;\n      tokenReward = H3O(addressOfTokenUsedAsReward);\n      tokensLeft = tokenReward.INITIAL_SUPPLY();\n    }\n  // =============\n\n  // ==================\n\n  // Crowdsale Stage Management\n  // =========================================================\n\n  // Change Crowdsale Stage. Available Options: Stage1, Stage2, Stage3, Stage4\n  function setCrowdsaleStage(uint value) private {\n\n      CrowdsaleStage _stage;\n\n      if (uint(CrowdsaleStage.Stage1) == value) {\n        _stage = CrowdsaleStage.Stage1;\n      } else if (uint(CrowdsaleStage.Stage2) == value) {\n        _stage = CrowdsaleStage.Stage2;\n      } else if (uint(CrowdsaleStage.Stage3) == value) {\n        _stage = CrowdsaleStage.Stage3;\n      } else if (uint(CrowdsaleStage.Stage4) == value) {\n        _stage = CrowdsaleStage.Stage4;\n      }\n\n      stage = _stage;\n\n      //Setting the current rate with oraclize and discounts\n      if (stage == CrowdsaleStage.Stage1) {\n        setCurrentRate((ethInCents.mul(120)).div(1000));//ETHUSD divided 0,7 USD \n      } else if (stage == CrowdsaleStage.Stage2) {\n        setCurrentRate((ethInCents.mul(115)).div(1000));//ETHUSD divided\n      } else if (stage == CrowdsaleStage.Stage3) {\n        setCurrentRate((ethInCents.mul(110)).div(1000));//ETHUSD divided\n      } else if (stage == CrowdsaleStage.Stage4) {\n        setCurrentRate((ethInCents.mul(105)).div(1000));//ETHUSD divided\n      }\n  }\n\n  // Change the current rate\n  function setCurrentRate(uint256 _rate) private { \n      rate = _rate;\n  }\n\n  // ================ Stage Management Over =====================\n\n  // Token Purchase\n  // =========================\n  function () external payable {\n    \n      if(now <= 1530375600) {\n        setCrowdsaleStage(uint(CrowdsaleStage.Stage1));\n      } else if (now > 1530375600 && now <= 1530376200) {\n        setCrowdsaleStage(uint(CrowdsaleStage.Stage2));\n      } else if (now > 1530376200 && now <= 1530376800) {\n        setCrowdsaleStage(uint(CrowdsaleStage.Stage3));\n      } else if (now > 1530376800) {\n        setCrowdsaleStage(uint(CrowdsaleStage.Stage4));\n      }\n\n  // Set Crowdsale Stages depending on time\n      buyTokens(msg.sender);\n  }\n\n  function buyTokens(address _beneficiary) public payable {\n    require(_beneficiary != address(0));\n\n    uint256 weiAmount = msg.value;\n    _preValidatePurchase(_beneficiary, weiAmount);\n\n    // calculate token amount to be created\n    uint256 tokens = weiAmount.mul(rate);\n\n    // update state\n    weiRaised = weiRaised.add(weiAmount);\n\n    // Instead of minting new token transfer from\n    // those assigned to the Crowdsale contract\n    // token.mint(beneficiary, tokens);\n    require(tokenReward.transferFrom(tokenReward.owner(), _beneficiary, tokens));\n\n    TokenPurchase(msg.sender, _beneficiary, weiAmount, tokens);\n\n    _forwardFunds();\n  }\n\n  function buyTokensOtherCurrencies(address _beneficiary, uint256 _amount) external onlyOwner {\n\n    _preValidatePurchase(_beneficiary, _amount * (10 ** uint256(tokenReward.decimals())));\n\n    require(tokenReward.transferFrom(tokenReward.owner(), _beneficiary, _amount * (10 ** uint256(tokenReward.decimals()))));\n\n    //Substrakt Tokens from the remaining tokens.\n    tokensLeft = tokensLeft.sub(_amount * (10 ** uint256(tokenReward.decimals())));\n\n    TokenPurchase(_beneficiary ,_beneficiary, _amount * (10 ** uint256(tokenReward.decimals())), _amount * (10 ** uint256(tokenReward.decimals())));\n  }\n\n  function endCrowdsale(address _wallet) external onlyOwner {\n    require(tokenReward.transferFrom(tokenReward.owner(), _wallet, tokensLeft));\n\n    TokenPurchase(_wallet, _wallet, tokensLeft, tokensLeft);\n  }\n\n\n  // REMOVE THIS FUNCTION ONCE YOU ARE READY FOR PRODUCTION\n  function hasEnded() public view returns (uint256) {\n    return tokensLeft;\n  }\n}",
  "sourcePath": "/Users/florianpircher/Documents/HydrominerCoin/contracts/H3OCrowdsale.sol",
  "compiler": {
    "name": "solc",
    "version": "0.4.24+commit.e67f0147.Emscripten.clang"
  },
  "schemaVersion": "2.0.1",
  "updatedAt": "2018-07-05T18:11:36.593Z"
}