{
  "contractName": "H3OCrowdsale",
  "abi": [
    {
      "constant": true,
      "inputs": [],
      "name": "hasClosed",
      "outputs": [
        {
          "name": "",
          "type": "bool"
        }
      ],
      "payable": false,
      "stateMutability": "view",
      "type": "function"
    },
    {
      "constant": false,
      "inputs": [
        {
          "name": "cbId",
          "type": "bytes32"
        },
        {
          "name": "result",
          "type": "string"
        }
      ],
      "name": "__callback",
      "outputs": [],
      "payable": false,
      "stateMutability": "nonpayable",
      "type": "function"
    },
    {
      "constant": true,
      "inputs": [],
      "name": "rate",
      "outputs": [
        {
          "name": "",
          "type": "uint256"
        }
      ],
      "payable": false,
      "stateMutability": "view",
      "type": "function"
    },
    {
      "constant": false,
      "inputs": [
        {
          "name": "myid",
          "type": "bytes32"
        },
        {
          "name": "result",
          "type": "string"
        },
        {
          "name": "proof",
          "type": "bytes"
        }
      ],
      "name": "__callback",
      "outputs": [],
      "payable": false,
      "stateMutability": "nonpayable",
      "type": "function"
    },
    {
      "constant": true,
      "inputs": [],
      "name": "weiRaised",
      "outputs": [
        {
          "name": "",
          "type": "uint256"
        }
      ],
      "payable": false,
      "stateMutability": "view",
      "type": "function"
    },
    {
      "constant": true,
      "inputs": [],
      "name": "closingTime",
      "outputs": [
        {
          "name": "",
          "type": "uint256"
        }
      ],
      "payable": false,
      "stateMutability": "view",
      "type": "function"
    },
    {
      "constant": true,
      "inputs": [],
      "name": "wallet",
      "outputs": [
        {
          "name": "",
          "type": "address"
        }
      ],
      "payable": false,
      "stateMutability": "view",
      "type": "function"
    },
    {
      "constant": true,
      "inputs": [],
      "name": "lastOraclizeCallback",
      "outputs": [
        {
          "name": "",
          "type": "uint256"
        }
      ],
      "payable": false,
      "stateMutability": "view",
      "type": "function"
    },
    {
      "constant": true,
      "inputs": [],
      "name": "tokenReward",
      "outputs": [
        {
          "name": "",
          "type": "address"
        }
      ],
      "payable": false,
      "stateMutability": "view",
      "type": "function"
    },
    {
      "constant": false,
      "inputs": [],
      "name": "renounceOwnership",
      "outputs": [],
      "payable": false,
      "stateMutability": "nonpayable",
      "type": "function"
    },
    {
      "constant": false,
      "inputs": [],
      "name": "instantUpdate",
      "outputs": [],
      "payable": true,
      "stateMutability": "payable",
      "type": "function"
    },
    {
      "constant": false,
      "inputs": [
        {
          "name": "_beneficiary",
          "type": "address"
        }
      ],
      "name": "removeFromWhitelist",
      "outputs": [],
      "payable": false,
      "stateMutability": "nonpayable",
      "type": "function"
    },
    {
      "constant": false,
      "inputs": [
        {
          "name": "_beneficiaries",
          "type": "address[]"
        }
      ],
      "name": "addManyToWhitelist",
      "outputs": [],
      "payable": false,
      "stateMutability": "nonpayable",
      "type": "function"
    },
    {
      "constant": true,
      "inputs": [],
      "name": "owner",
      "outputs": [
        {
          "name": "",
          "type": "address"
        }
      ],
      "payable": false,
      "stateMutability": "view",
      "type": "function"
    },
    {
      "constant": true,
      "inputs": [
        {
          "name": "",
          "type": "address"
        }
      ],
      "name": "whitelist",
      "outputs": [
        {
          "name": "",
          "type": "bool"
        }
      ],
      "payable": false,
      "stateMutability": "view",
      "type": "function"
    },
    {
      "constant": false,
      "inputs": [],
      "name": "update",
      "outputs": [],
      "payable": true,
      "stateMutability": "payable",
      "type": "function"
    },
    {
      "constant": true,
      "inputs": [],
      "name": "openingTime",
      "outputs": [
        {
          "name": "",
          "type": "uint256"
        }
      ],
      "payable": false,
      "stateMutability": "view",
      "type": "function"
    },
    {
      "constant": true,
      "inputs": [],
      "name": "stage",
      "outputs": [
        {
          "name": "",
          "type": "uint8"
        }
      ],
      "payable": false,
      "stateMutability": "view",
      "type": "function"
    },
    {
      "constant": false,
      "inputs": [
        {
          "name": "_beneficiary",
          "type": "address"
        }
      ],
      "name": "addToWhitelist",
      "outputs": [],
      "payable": false,
      "stateMutability": "nonpayable",
      "type": "function"
    },
    {
      "constant": false,
      "inputs": [
        {
          "name": "_newOwner",
          "type": "address"
        }
      ],
      "name": "transferOwnership",
      "outputs": [],
      "payable": false,
      "stateMutability": "nonpayable",
      "type": "function"
    },
    {
      "constant": true,
      "inputs": [],
      "name": "token",
      "outputs": [
        {
          "name": "",
          "type": "address"
        }
      ],
      "payable": false,
      "stateMutability": "view",
      "type": "function"
    },
    {
      "constant": true,
      "inputs": [],
      "name": "ethInCents",
      "outputs": [
        {
          "name": "",
          "type": "uint256"
        }
      ],
      "payable": false,
      "stateMutability": "view",
      "type": "function"
    },
    {
      "inputs": [
        {
          "name": "_openingTime",
          "type": "uint256"
        },
        {
          "name": "_closingTime",
          "type": "uint256"
        },
        {
          "name": "_wallet",
          "type": "address"
        },
        {
          "name": "_token",
          "type": "address"
        },
        {
          "name": "addressOfTokenUsedAsReward",
          "type": "address"
        },
        {
          "name": "_initialEthUsdCentsPrice",
          "type": "uint256"
        }
      ],
      "payable": false,
      "stateMutability": "nonpayable",
      "type": "constructor"
    },
    {
      "payable": true,
      "stateMutability": "payable",
      "type": "fallback"
    },
    {
      "anonymous": false,
      "inputs": [
        {
          "indexed": false,
          "name": "text",
          "type": "string"
        }
      ],
      "name": "EthTransferred",
      "type": "event"
    },
    {
      "anonymous": false,
      "inputs": [
        {
          "indexed": false,
          "name": "description",
          "type": "string"
        }
      ],
      "name": "LogOraclizeQuery",
      "type": "event"
    },
    {
      "anonymous": false,
      "inputs": [
        {
          "indexed": false,
          "name": "price",
          "type": "string"
        }
      ],
      "name": "LogPriceUpdated",
      "type": "event"
    },
    {
      "anonymous": false,
      "inputs": [
        {
          "indexed": true,
          "name": "previousOwner",
          "type": "address"
        }
      ],
      "name": "OwnershipRenounced",
      "type": "event"
    },
    {
      "anonymous": false,
      "inputs": [
        {
          "indexed": true,
          "name": "previousOwner",
          "type": "address"
        },
        {
          "indexed": true,
          "name": "newOwner",
          "type": "address"
        }
      ],
      "name": "OwnershipTransferred",
      "type": "event"
    },
    {
      "anonymous": false,
      "inputs": [
        {
          "indexed": true,
          "name": "purchaser",
          "type": "address"
        },
        {
          "indexed": true,
          "name": "beneficiary",
          "type": "address"
        },
        {
          "indexed": false,
          "name": "value",
          "type": "uint256"
        },
        {
          "indexed": false,
          "name": "amount",
          "type": "uint256"
        }
      ],
      "name": "TokenPurchase",
      "type": "event"
    },
    {
      "constant": false,
      "inputs": [
        {
          "name": "_beneficiary",
          "type": "address"
        }
      ],
      "name": "buyTokens",
      "outputs": [],
      "payable": true,
      "stateMutability": "payable",
      "type": "function"
    },
    {
      "constant": true,
      "inputs": [],
      "name": "hasEnded",
      "outputs": [
        {
          "name": "",
          "type": "uint256"
        }
      ],
      "payable": false,
      "stateMutability": "view",
      "type": "function"
    }
  ],
  "bytecode": "0x60806040526011805460a060020a60ff02191690553480156200002157600080fd5b5060405160c0806200307383398101604090815281516020830151918301516060840151608085015160a09095015192949192909190858560018686600160a060020a03821615156200007357600080fd5b600160a060020a03811615156200008957600080fd5b60029290925560018054600160a060020a03928316600160a060020a0319918216179091556000805493909216928116929092179055600480549091163317905581811015620000d857600080fd5b6006919091556007556000600e5560088054600160a060020a031916736f485c8bf6fc43ea212e93bbf8ce046c7f1cb4751790556200011f6401000000006200014d810204565b600d5560118054600160a060020a031916600160a060020a03929092169190911790555062000ec292505050565b600062000162640100000000620002cf810204565b15156200016e57600080fd5b601054156200017c57600080fd5b6040805160208082526031908201527f52657175657374696e67204f7261636c697a6520746f207375626d6974206c61818301527f7465737420455448555344207072696365000000000000000000000000000000606082015290517f0415a732c27dc65a8318b1f49677f1d76eb7365d60653ee494ed0897ef70abc89181900360800190a1620002b0603c6040805190810160405280600381526020017f55524c0000000000000000000000000000000000000000000000000000000000815250606060405190810160405280603081526020017f6a736f6e2868747470733a2f2f6170692e696e667572612e696f2f76312f746981526020017f636b65722f657468757364292e61736b0000000000000000000000000000000081525062000325640100000000026401000000009004565b6000818152600f60205260409020805460ff1916600117905560105550565b60408051808201909152600381527f55524c000000000000000000000000000000000000000000000000000000000060208201526000903031906200031d906401000000006200077d810204565b111590505b90565b6008546000908190600160a060020a031615806200036057506008546200035e90600160a060020a031664010000000062000a3c810204565b155b156200037d576200037b600064010000000062000a40810204565b505b600860009054906101000a9004600160a060020a0316600160a060020a03166338cc48316040518163ffffffff167c0100000000000000000000000000000000000000000000000000000000028152600401602060405180830381600087803b158015620003ea57600080fd5b505af1158015620003ff573d6000803e3d6000fd5b505050506040513d60208110156200041657600080fd5b5051600954600160a060020a03908116911614620004e957600860009054906101000a9004600160a060020a0316600160a060020a03166338cc48316040518163ffffffff167c0100000000000000000000000000000000000000000000000000000000028152600401602060405180830381600087803b1580156200049b57600080fd5b505af1158015620004b0573d6000803e3d6000fd5b505050506040513d6020811015620004c757600080fd5b505160098054600160a060020a031916600160a060020a039092169190911790555b6009546040517f524f3889000000000000000000000000000000000000000000000000000000008152602060048201818152875160248401528751600160a060020a039094169363524f388993899383926044909201919085019080838360005b83811015620005645781810151838201526020016200054a565b50505050905090810190601f168015620005925780820380516001836020036101000a031916815260200191505b5092505050602060405180830381600087803b158015620005b257600080fd5b505af1158015620005c7573d6000803e3d6000fd5b505050506040513d6020811015620005de57600080fd5b50519050670de0b6b3a764000062030d403a020181111562000604576000915062000775565b6009546040517fadf59f9900000000000000000000000000000000000000000000000000000000815260048101878152606060248301908152875160648401528751600160a060020a039094169363adf59f999386938b938b938b936044810191608490910190602087019080838360005b838110156200069057818101518382015260200162000676565b50505050905090810190601f168015620006be5780820380516001836020036101000a031916815260200191505b50838103825284518152845160209182019186019080838360005b83811015620006f3578181015183820152602001620006d9565b50505050905090810190601f168015620007215780820380516001836020036101000a031916815260200191505b50955050505050506020604051808303818588803b1580156200074357600080fd5b505af115801562000758573d6000803e3d6000fd5b50505050506040513d60208110156200077057600080fd5b505191505b509392505050565b600854600090600160a060020a03161580620007b65750600854620007b490600160a060020a031664010000000062000a3c810204565b155b15620007d357620007d1600064010000000062000a40810204565b505b600860009054906101000a9004600160a060020a0316600160a060020a03166338cc48316040518163ffffffff167c0100000000000000000000000000000000000000000000000000000000028152600401602060405180830381600087803b1580156200084057600080fd5b505af115801562000855573d6000803e3d6000fd5b505050506040513d60208110156200086c57600080fd5b5051600954600160a060020a039081169116146200093f57600860009054906101000a9004600160a060020a0316600160a060020a03166338cc48316040518163ffffffff167c0100000000000000000000000000000000000000000000000000000000028152600401602060405180830381600087803b158015620008f157600080fd5b505af115801562000906573d6000803e3d6000fd5b505050506040513d60208110156200091d57600080fd5b505160098054600160a060020a031916600160a060020a039092169190911790555b6009546040517f524f3889000000000000000000000000000000000000000000000000000000008152602060048201818152855160248401528551600160a060020a039094169363524f388993879383926044909201919085019080838360005b83811015620009ba578181015183820152602001620009a0565b50505050905090810190601f168015620009e85780820380516001836020036101000a031916815260200191505b5092505050602060405180830381600087803b15801562000a0857600080fd5b505af115801562000a1d573d6000803e3d6000fd5b505050506040513d602081101562000a3457600080fd5b505192915050565b3b90565b600062000a5564010000000062000a5b810204565b92915050565b60008062000a86731d3b2638a7cc9f2cb3d298a3da7a90b67e5506ed64010000000062000a3c810204565b111562000b045760088054600160a060020a031916731d3b2638a7cc9f2cb3d298a3da7a90b67e5506ed17905560408051808201909152600b81527f6574685f6d61696e6e6574000000000000000000000000000000000000000000602082015262000afb9064010000000062000e07810204565b50600162000322565b600062000b2e73c03a2615d5efaf5f49f60b7bb6583eaec212fdf164010000000062000a3c810204565b111562000ba35760088054600160a060020a03191673c03a2615d5efaf5f49f60b7bb6583eaec212fdf117905560408051808201909152600c81527f6574685f726f707374656e330000000000000000000000000000000000000000602082015262000afb9064010000000062000e07810204565b600062000bcd73b7a07bcf2ba2f2703b24c0691b5278999c59ac7e64010000000062000a3c810204565b111562000c425760088054600160a060020a03191673b7a07bcf2ba2f2703b24c0691b5278999c59ac7e17905560408051808201909152600981527f6574685f6b6f76616e0000000000000000000000000000000000000000000000602082015262000afb9064010000000062000e07810204565b600062000c6c73146500cfd35b22e4a392fe0adc06de1a1368ed4864010000000062000a3c810204565b111562000ce15760088054600160a060020a03191673146500cfd35b22e4a392fe0adc06de1a1368ed4817905560408051808201909152600b81527f6574685f72696e6b656279000000000000000000000000000000000000000000602082015262000afb9064010000000062000e07810204565b600062000d0b736f485c8bf6fc43ea212e93bbf8ce046c7f1cb47564010000000062000a3c810204565b111562000d41575060088054600160a060020a031916736f485c8bf6fc43ea212e93bbf8ce046c7f1cb475179055600162000322565b600062000d6b7320e12a1f859b3feae5fb2a0a32c18f5a65555bbf64010000000062000a3c810204565b111562000da1575060088054600160a060020a0319167320e12a1f859b3feae5fb2a0a32c18f5a65555bbf179055600162000322565b600062000dcb7351efaf4c8b3c9afbd5ab9f4bbc82784ab6ef8faa64010000000062000a3c810204565b111562000e01575060088054600160a060020a0319167351efaf4c8b3c9afbd5ab9f4bbc82784ab6ef8faa179055600162000322565b50600090565b805162000e1c90600a90602084019062000e20565b5050565b828054600181600116156101000203166002900490600052602060002090601f016020900481019282601f1062000e6357805160ff191683800117855562000e93565b8280016001018555821562000e93579182015b8281111562000e9357825182559160200191906001019062000e76565b5062000ea192915062000ea5565b5090565b6200032291905b8082111562000ea1576000815560010162000eac565b6121a18062000ed26000396000f3006080604052600436106101245763ffffffff60e060020a6000350416631515bc2b81146101ac57806327dc297e146101d55780632c4e722e1461023357806338bbfa501461025a5780634042b66f146102f65780634b6753bc1461030b578063521eb2731461032057806360fd19ba146103515780636e66f6e914610366578063715018a61461037b57806381592aab146103905780638ab1d681146103985780638c10671c146103b95780638da5cb5b146103d95780639b19251a146103ee578063a2e620451461040f578063b7a8807c14610417578063c040e6b81461042c578063e43252d714610465578063ec8ac4d814610486578063ecb70fb71461049a578063f2fde38b146104af578063fc0c546a146104d0578063fe31482a146104e5575b635b37adb0421161013f5761013a60005b6104fa565b6101a1565b635b37adb0421180156101565750635b37b0084211155b156101655761013a6001610135565b635b37b0084211801561017c5750635b37b2604211155b1561018b5761013a6002610135565b635b37b2604211156101a1576101a16003610135565b6101aa336106a1565b005b3480156101b857600080fd5b506101c16107ee565b604080519115158252519081900360200190f35b3480156101e157600080fd5b5060408051602060046024803582810135601f81018590048502860185019096528585526101aa9583359536956044949193909101919081908401838280828437509497506107f79650505050505050565b34801561023f57600080fd5b5061024861091b565b60408051918252519081900360200190f35b34801561026657600080fd5b5060408051602060046024803582810135601f81018590048502860185019096528585526101aa95833595369560449491939091019190819084018382808284375050604080516020601f89358b018035918201839004830284018301909452808352979a9998810197919650918201945092508291508401838280828437509497506107e99650505050505050565b34801561030257600080fd5b50610248610921565b34801561031757600080fd5b50610248610927565b34801561032c57600080fd5b5061033561092d565b60408051600160a060020a039092168252519081900360200190f35b34801561035d57600080fd5b5061024861093c565b34801561037257600080fd5b50610335610942565b34801561038757600080fd5b506101aa610951565b6101aa6109b2565b3480156103a457600080fd5b506101aa600160a060020a0360043516610aed565b3480156103c557600080fd5b506101aa6004803560248101910135610b25565b3480156103e557600080fd5b50610335610b96565b3480156103fa57600080fd5b506101c1600160a060020a0360043516610ba5565b6101aa610bba565b34801561042357600080fd5b50610248610d07565b34801561043857600080fd5b50610441610d0d565b6040518082600381111561045157fe5b60ff16815260200191505060405180910390f35b34801561047157600080fd5b506101aa600160a060020a0360043516610d1d565b6101aa600160a060020a03600435166106a1565b3480156104a657600080fd5b50610248610d58565b3480156104bb57600080fd5b506101aa600160a060020a0360043516610d7f565b3480156104dc57600080fd5b50610335610da2565b3480156104f157600080fd5b50610248610db1565b600081151561050b5750600061053a565b816001141561051c5750600161053a565b816002141561052d5750600261053a565b816003141561053a575060035b6011805482919074ff0000000000000000000000000000000000000000191660a060020a83600381111561056a57fe5b0217905550600060115460a060020a900460ff16600381111561058957fe5b14156105d4576105cf6105ca60646105be60786105b2600a600d54610db790919063ffffffff16565b9063ffffffff610dce16565b9063ffffffff610db716565b610df7565b61069d565b600160115460a060020a900460ff1660038111156105ee57fe5b1415610617576105cf6105ca60646105be60736105b2600a600d54610db790919063ffffffff16565b600260115460a060020a900460ff16600381111561063157fe5b141561065a576105cf6105ca60646105be606e6105b2600a600d54610db790919063ffffffff16565b600360115460a060020a900460ff16600381111561067457fe5b141561069d5761069d6105ca60646105be60696105b2600a600d54610db790919063ffffffff16565b5050565b600080600160a060020a03831615156106b957600080fd5b3491506106c68383610dfc565b6002546106da90839063ffffffff610dce16565b6003549091506106f0908363ffffffff610e2516565b600355601154604080517fa9059cbb000000000000000000000000000000000000000000000000000000008152600160a060020a038681166004830152602482018590529151919092169163a9059cbb9160448083019260209291908290030181600087803b15801561076257600080fd5b505af1158015610776573d6000803e3d6000fd5b505050506040513d602081101561078c57600080fd5b5051151561079957600080fd5b60408051838152602081018390528151600160a060020a0386169233927f623b3804fa71d67900d064613da8f94b9617215ee90799290593e1745087ad18929081900390910190a36107e9610e32565b505050565b60075442115b90565b6107ff610e6b565b600160a060020a0316331461081357600080fd5b6000828152600f602052604090205460ff16151561083057600080fd5b61083b816002611060565b600d556000828152600f60209081526040808320805460ff1916905543600e55805182815284518184015284517f71f1a5645e51a2da828ffcf79cc17da88eb25e1bca8b9dced23210847a4769c19486949293849390840192908601918190849084905b838110156108b757818101518382015260200161089f565b50505050905090810190601f1680156108e45780820380516001836020036101000a031916815260200191505b509250505060405180910390a16010548214156105cf57600060105561090861121a565b15156109135761069d565b61069d610bba565b60025481565b60035481565b60075481565b600154600160a060020a031681565b600e5481565b601154600160a060020a031681565b600454600160a060020a0316331461096857600080fd5b600454604051600160a060020a03909116907ff8df31144d9c2f0f6b59d69b8b98abd5459d07f2742c4df920b25aae33c6482090600090a260048054600160a060020a0319169055565b60006109bc611255565b15156109c757600080fd5b604080516020808252603b908201527f52657175657374696e67204f7261636c697a6520746f207375626d6974206c61818301527f746573742045544855534420707269636520696e7374616e746c790000000000606082015290517f0415a732c27dc65a8318b1f49677f1d76eb7365d60653ee494ed0897ef70abc89181900360800190a1610ad160408051908101604052806003815260200160ea60020a6215549302815250606060405190810160405280603081526020017f6a736f6e2868747470733a2f2f6170692e696e667572612e696f2f76312f746981526020017f636b65722f657468757364292e61736b0000000000000000000000000000000081525061127f565b6000908152600f60205260409020805460ff1916600117905550565b600454600160a060020a03163314610b0457600080fd5b600160a060020a03166000908152600560205260409020805460ff19169055565b600454600090600160a060020a03163314610b3f57600080fd5b5060005b818110156107e957600160056000858585818110610b5d57fe5b60209081029290920135600160a060020a0316835250810191909152604001600020805460ff1916911515919091179055600101610b43565b600454600160a060020a031681565b60056020526000908152604090205460ff1681565b6000610bc461121a565b1515610bcf57600080fd5b60105415610bdc57600080fd5b6040805160208082526031908201527f52657175657374696e67204f7261636c697a6520746f207375626d6974206c61818301527f7465737420455448555344207072696365000000000000000000000000000000606082015290517f0415a732c27dc65a8318b1f49677f1d76eb7365d60653ee494ed0897ef70abc89181900360800190a1610ce8603c60408051908101604052806003815260200160ea60020a6215549302815250606060405190810160405280603081526020017f6a736f6e2868747470733a2f2f6170692e696e667572612e696f2f76312f746981526020017f636b65722f657468757364292e61736b00000000000000000000000000000000815250611676565b6000818152600f60205260409020805460ff1916600117905560105550565b60065481565b60115460a060020a900460ff1681565b600454600160a060020a03163314610d3457600080fd5b600160a060020a03166000908152600560205260409020805460ff19166001179055565b6000610d7a60646105be60786105b2600a600d54610db790919063ffffffff16565b905090565b600454600160a060020a03163314610d9657600080fd5b610d9f81611a6c565b50565b600054600160a060020a031681565b600d5481565b60008183811515610dc457fe5b0490505b92915050565b6000821515610ddf57506000610dc8565b50818102818382811515610def57fe5b0414610dc857fe5b600255565b6006544210158015610e1057506007544211155b1515610e1b57600080fd5b61069d8282611add565b81810182811015610dc857fe5b600154604051600160a060020a03909116903480156108fc02916000818181858888f19350505050158015610d9f573d6000803e3d6000fd5b600854600090600160a060020a03161580610e985750600854610e9690600160a060020a0316611b10565b155b15610ea957610ea76000611b14565b505b600860009054906101000a9004600160a060020a0316600160a060020a03166338cc48316040518163ffffffff1660e060020a028152600401602060405180830381600087803b158015610efc57600080fd5b505af1158015610f10573d6000803e3d6000fd5b505050506040513d6020811015610f2657600080fd5b5051600954600160a060020a03908116911614610fdc57600860009054906101000a9004600160a060020a0316600160a060020a03166338cc48316040518163ffffffff1660e060020a028152600401602060405180830381600087803b158015610f9057600080fd5b505af1158015610fa4573d6000803e3d6000fd5b505050506040513d6020811015610fba57600080fd5b505160098054600160a060020a031916600160a060020a039092169190911790555b600960009054906101000a9004600160a060020a0316600160a060020a031663c281d19e6040518163ffffffff1660e060020a028152600401602060405180830381600087803b15801561102f57600080fd5b505af1158015611043573d6000803e3d6000fd5b505050506040513d602081101561105957600080fd5b5051905090565b6000828180805b83518110156111fd5783517f3000000000000000000000000000000000000000000000000000000000000000908590839081106110a057fe5b90602001015160f860020a900460f860020a027effffffffffffffffffffffffffffffffffffffffffffffffffffffffffffff191610158015611146575083517f39000000000000000000000000000000000000000000000000000000000000009085908390811061110e57fe5b90602001015160f860020a900460f860020a027effffffffffffffffffffffffffffffffffffffffffffffffffffffffffffff191611155b1561119f5781156111655785151561115d576111fd565b600019909501945b600a830292506030848281518110151561117b57fe5b90602001015160f860020a900460f860020a0260f860020a900403830192506111f5565b83818151811015156111ad57fe5b90602001015160f860020a900460f860020a027effffffffffffffffffffffffffffffffffffffffffffffffffffffffffffff1916602e60f860020a0214156111f557600191505b600101611067565b600086111561120f5785600a0a830292505b509095945050505050565b600030600160a060020a03163161124e60408051908101604052806003815260200160ea60020a6215549302815250611b1e565b1115905090565b60003461124e60408051908101604052806003815260200160ea60020a6215549302815250611b1e565b6008546000908190600160a060020a031615806112ae57506008546112ac90600160a060020a0316611b10565b155b156112bf576112bd6000611b14565b505b600860009054906101000a9004600160a060020a0316600160a060020a03166338cc48316040518163ffffffff1660e060020a028152600401602060405180830381600087803b15801561131257600080fd5b505af1158015611326573d6000803e3d6000fd5b505050506040513d602081101561133c57600080fd5b5051600954600160a060020a039081169116146113f257600860009054906101000a9004600160a060020a0316600160a060020a03166338cc48316040518163ffffffff1660e060020a028152600401602060405180830381600087803b1580156113a657600080fd5b505af11580156113ba573d6000803e3d6000fd5b505050506040513d60208110156113d057600080fd5b505160098054600160a060020a031916600160a060020a039092169190911790555b6009546040517f524f3889000000000000000000000000000000000000000000000000000000008152602060048201818152875160248401528751600160a060020a039094169363524f388993899383926044909201919085019080838360005b8381101561146b578181015183820152602001611453565b50505050905090810190601f1680156114985780820380516001836020036101000a031916815260200191505b5092505050602060405180830381600087803b1580156114b757600080fd5b505af11580156114cb573d6000803e3d6000fd5b505050506040513d60208110156114e157600080fd5b50519050670de0b6b3a764000062030d403a0201811115611505576000915061166f565b6009546040517fadf59f99000000000000000000000000000000000000000000000000000000008152600060048201818152606060248401908152885160648501528851600160a060020a039095169463adf59f99948794938b938b939192909160448201916084019060208701908083838b5b83811015611591578181015183820152602001611579565b50505050905090810190601f1680156115be5780820380516001836020036101000a031916815260200191505b50838103825284518152845160209182019186019080838360005b838110156115f15781810151838201526020016115d9565b50505050905090810190601f16801561161e5780820380516001836020036101000a031916815260200191505b50955050505050506020604051808303818588803b15801561163f57600080fd5b505af1158015611653573d6000803e3d6000fd5b50505050506040513d602081101561166a57600080fd5b505191505b5092915050565b6008546000908190600160a060020a031615806116a557506008546116a390600160a060020a0316611b10565b155b156116b6576116b46000611b14565b505b600860009054906101000a9004600160a060020a0316600160a060020a03166338cc48316040518163ffffffff1660e060020a028152600401602060405180830381600087803b15801561170957600080fd5b505af115801561171d573d6000803e3d6000fd5b505050506040513d602081101561173357600080fd5b5051600954600160a060020a039081169116146117e957600860009054906101000a9004600160a060020a0316600160a060020a03166338cc48316040518163ffffffff1660e060020a028152600401602060405180830381600087803b15801561179d57600080fd5b505af11580156117b1573d6000803e3d6000fd5b505050506040513d60208110156117c757600080fd5b505160098054600160a060020a031916600160a060020a039092169190911790555b6009546040517f524f3889000000000000000000000000000000000000000000000000000000008152602060048201818152875160248401528751600160a060020a039094169363524f388993899383926044909201919085019080838360005b8381101561186257818101518382015260200161184a565b50505050905090810190601f16801561188f5780820380516001836020036101000a031916815260200191505b5092505050602060405180830381600087803b1580156118ae57600080fd5b505af11580156118c2573d6000803e3d6000fd5b505050506040513d60208110156118d857600080fd5b50519050670de0b6b3a764000062030d403a02018111156118fc5760009150611a64565b6009546040517fadf59f9900000000000000000000000000000000000000000000000000000000815260048101878152606060248301908152875160648401528751600160a060020a039094169363adf59f999386938b938b938b936044810191608490910190602087019080838360005b8381101561198657818101518382015260200161196e565b50505050905090810190601f1680156119b35780820380516001836020036101000a031916815260200191505b50838103825284518152845160209182019186019080838360005b838110156119e65781810151838201526020016119ce565b50505050905090810190601f168015611a135780820380516001836020036101000a031916815260200191505b50955050505050506020604051808303818588803b158015611a3457600080fd5b505af1158015611a48573d6000803e3d6000fd5b50505050506040513d6020811015611a5f57600080fd5b505191505b509392505050565b600160a060020a0381161515611a8157600080fd5b600454604051600160a060020a038084169216907f8be0079c531659141344cd1fd0a4f28419497f9722a3daafe3b4186f6b6457e090600090a360048054600160a060020a031916600160a060020a0392909216919091179055565b600160a060020a038216600090815260056020526040902054829060ff161515611b0657600080fd5b6107e98383611d86565b3b90565b6000610dc8611da7565b600854600090600160a060020a03161580611b4b5750600854611b4990600160a060020a0316611b10565b155b15611b5c57611b5a6000611b14565b505b600860009054906101000a9004600160a060020a0316600160a060020a03166338cc48316040518163ffffffff1660e060020a028152600401602060405180830381600087803b158015611baf57600080fd5b505af1158015611bc3573d6000803e3d6000fd5b505050506040513d6020811015611bd957600080fd5b5051600954600160a060020a03908116911614611c8f57600860009054906101000a9004600160a060020a0316600160a060020a03166338cc48316040518163ffffffff1660e060020a028152600401602060405180830381600087803b158015611c4357600080fd5b505af1158015611c57573d6000803e3d6000fd5b505050506040513d6020811015611c6d57600080fd5b505160098054600160a060020a031916600160a060020a039092169190911790555b6009546040517f524f3889000000000000000000000000000000000000000000000000000000008152602060048201818152855160248401528551600160a060020a039094169363524f388993879383926044909201919085019080838360005b83811015611d08578181015183820152602001611cf0565b50505050905090810190601f168015611d355780820380516001836020036101000a031916815260200191505b5092505050602060405180830381600087803b158015611d5457600080fd5b505af1158015611d68573d6000803e3d6000fd5b505050506040513d6020811015611d7e57600080fd5b505192915050565b600160a060020a0382161515611d9b57600080fd5b80151561069d57600080fd5b600080611dc7731d3b2638a7cc9f2cb3d298a3da7a90b67e5506ed611b10565b1115611e385760088054600160a060020a031916731d3b2638a7cc9f2cb3d298a3da7a90b67e5506ed17905560408051808201909152600b81527f6574685f6d61696e6e65740000000000000000000000000000000000000000006020820152611e30906120cf565b5060016107f4565b6000611e5773c03a2615d5efaf5f49f60b7bb6583eaec212fdf1611b10565b1115611ec05760088054600160a060020a03191673c03a2615d5efaf5f49f60b7bb6583eaec212fdf117905560408051808201909152600c81527f6574685f726f707374656e3300000000000000000000000000000000000000006020820152611e30906120cf565b6000611edf73b7a07bcf2ba2f2703b24c0691b5278999c59ac7e611b10565b1115611f485760088054600160a060020a03191673b7a07bcf2ba2f2703b24c0691b5278999c59ac7e17905560408051808201909152600981527f6574685f6b6f76616e00000000000000000000000000000000000000000000006020820152611e30906120cf565b6000611f6773146500cfd35b22e4a392fe0adc06de1a1368ed48611b10565b1115611fd05760088054600160a060020a03191673146500cfd35b22e4a392fe0adc06de1a1368ed4817905560408051808201909152600b81527f6574685f72696e6b6562790000000000000000000000000000000000000000006020820152611e30906120cf565b6000611fef736f485c8bf6fc43ea212e93bbf8ce046c7f1cb475611b10565b1115612023575060088054600160a060020a031916736f485c8bf6fc43ea212e93bbf8ce046c7f1cb47517905560016107f4565b60006120427320e12a1f859b3feae5fb2a0a32c18f5a65555bbf611b10565b1115612076575060088054600160a060020a0319167320e12a1f859b3feae5fb2a0a32c18f5a65555bbf17905560016107f4565b60006120957351efaf4c8b3c9afbd5ab9f4bbc82784ab6ef8faa611b10565b11156120c9575060088054600160a060020a0319167351efaf4c8b3c9afbd5ab9f4bbc82784ab6ef8faa17905560016107f4565b50600090565b805161069d90600a906020840190828054600181600116156101000203166002900490600052602060002090601f016020900481019282601f1061211e57805160ff191683800117855561214b565b8280016001018555821561214b579182015b8281111561214b578251825591602001919060010190612130565b5061215792915061215b565b5090565b6107f491905b8082111561215757600081556001016121615600a165627a7a72305820df9667268994cbe0ac200d8194206626c9ec58ab0e951b1be65e4a90d8ec1fdd0029",
  "source": "pragma solidity ^0.4.24;\n\nimport './H3O.sol';\nimport '../node_modules/zeppelin-solidity/contracts/crowdsale/validation/WhitelistedCrowdsale.sol';\nimport '../node_modules/zeppelin-solidity/contracts/crowdsale/validation/TimedCrowdsale.sol';\nimport '../node_modules/zeppelin-solidity/contracts/math/SafeMath.sol';\nimport \"./ETHUSD.sol\";\n\ncontract H3OCrowdsale is WhitelistedCrowdsale, TimedCrowdsale, ETHUSD {\n\n  using SafeMath for uint256;\n\n  //The Token beeing sold\n  H3O public tokenReward;\n\n  // ICO Stage\n  // ============\n  enum CrowdsaleStage { Stage1, Stage2, Stage3, Stage4 }\n  CrowdsaleStage public stage = CrowdsaleStage.Stage1; // By default it's Stage1\n  // =============\n\n\n  // Events\n  event EthTransferred(string text);\n\n\n  // Constructor\n  // ============\n  function H3OCrowdsale(uint256 _openingTime, uint256 _closingTime, address _wallet, StandardBurnableToken _token, address addressOfTokenUsedAsReward, uint256 _initialEthUsdCentsPrice) TimedCrowdsale(_openingTime, _closingTime) \n    Crowdsale(1, _wallet, _token) public {\n      ethInCents = _initialEthUsdCentsPrice;\n      tokenReward = H3O(addressOfTokenUsedAsReward);\n    }\n  // =============\n\n  // ==================\n\n  // Crowdsale Stage Management\n  // =========================================================\n\n  // Change Crowdsale Stage. Available Options: Stage1, Stage2, Stage3, Stage4\n  function setCrowdsaleStage(uint value) private {\n\n      CrowdsaleStage _stage;\n\n      if (uint(CrowdsaleStage.Stage1) == value) {\n        _stage = CrowdsaleStage.Stage1;\n      } else if (uint(CrowdsaleStage.Stage2) == value) {\n        _stage = CrowdsaleStage.Stage2;\n      } else if (uint(CrowdsaleStage.Stage3) == value) {\n        _stage = CrowdsaleStage.Stage3;\n      } else if (uint(CrowdsaleStage.Stage4) == value) {\n        _stage = CrowdsaleStage.Stage4;\n      }\n\n      stage = _stage;\n\n      //Setting the current rate with oraclize and discounts\n      if (stage == CrowdsaleStage.Stage1) {\n        setCurrentRate(((ethInCents.div(10)).mul(120)).div(100));//ETHUSD divided 0,7 USD \n      } else if (stage == CrowdsaleStage.Stage2) {\n        setCurrentRate(((ethInCents.div(10)).mul(115)).div(100));//ETHUSD divided\n      } else if (stage == CrowdsaleStage.Stage3) {\n        setCurrentRate(((ethInCents.div(10)).mul(110)).div(100));//ETHUSD divided\n      } else if (stage == CrowdsaleStage.Stage4) {\n        setCurrentRate(((ethInCents.div(10)).mul(105)).div(100));//ETHUSD divided\n      }\n  }\n\n  // Change the current rate\n  function setCurrentRate(uint256 _rate) private { \n      rate = _rate;\n  }\n\n  // ================ Stage Management Over =====================\n\n  // Token Purchase\n  // =========================\n  function () external payable {\n    \n      if(now <= 1530375600) {\n        setCrowdsaleStage(uint(CrowdsaleStage.Stage1));\n      } else if (now > 1530375600 && now <= 1530376200) {\n        setCrowdsaleStage(uint(CrowdsaleStage.Stage2));\n      } else if (now > 1530376200 && now <= 1530376800) {\n        setCrowdsaleStage(uint(CrowdsaleStage.Stage3));\n      } else if (now > 1530376800) {\n        setCrowdsaleStage(uint(CrowdsaleStage.Stage4));\n      }\n\n  // Set Crowdsale Stages depending on time\n      buyTokens(msg.sender);\n  }\n\n  function buyTokens(address _beneficiary) public payable {\n    require(_beneficiary != address(0));\n\n    uint256 weiAmount = msg.value;\n    _preValidatePurchase(_beneficiary, weiAmount);\n\n    // calculate token amount to be created\n    uint256 tokens = weiAmount.mul(rate);\n\n    // update state\n    weiRaised = weiRaised.add(weiAmount);\n\n    // Instead of minting new token transfer from\n    // those assigned to the Crowdsale contract\n    // token.mint(beneficiary, tokens);\n    require(tokenReward.transfer(_beneficiary, tokens));\n\n    TokenPurchase(msg.sender, _beneficiary, weiAmount, tokens);\n\n    _forwardFunds();\n  }\n\n\n  // REMOVE THIS FUNCTION ONCE YOU ARE READY FOR PRODUCTION\n  function hasEnded() public view returns (uint256) {\n    return ((ethInCents.div(10)).mul(120)).div(100);\n  }\n}",
  "sourcePath": "/Users/florianpircher/Documents/HydrominerCoin/contracts/H3OCrowdsale.sol",
  "compiler": {
    "name": "solc",
    "version": "0.4.24+commit.e67f0147.Emscripten.clang"
  },
  "schemaVersion": "2.0.1",
  "updatedAt": "2018-07-04T14:59:36.834Z"
}