{
  "contractName": "H3OCrowdsale",
  "abi": [
    {
      "constant": true,
      "inputs": [],
      "name": "hasClosed",
      "outputs": [
        {
          "name": "",
          "type": "bool"
        }
      ],
      "payable": false,
      "stateMutability": "view",
      "type": "function"
    },
    {
      "constant": false,
      "inputs": [
        {
          "name": "cbId",
          "type": "bytes32"
        },
        {
          "name": "result",
          "type": "string"
        }
      ],
      "name": "__callback",
      "outputs": [],
      "payable": false,
      "stateMutability": "nonpayable",
      "type": "function"
    },
    {
      "constant": true,
      "inputs": [],
      "name": "rate",
      "outputs": [
        {
          "name": "",
          "type": "uint256"
        }
      ],
      "payable": false,
      "stateMutability": "view",
      "type": "function"
    },
    {
      "constant": false,
      "inputs": [
        {
          "name": "myid",
          "type": "bytes32"
        },
        {
          "name": "result",
          "type": "string"
        },
        {
          "name": "proof",
          "type": "bytes"
        }
      ],
      "name": "__callback",
      "outputs": [],
      "payable": false,
      "stateMutability": "nonpayable",
      "type": "function"
    },
    {
      "constant": true,
      "inputs": [],
      "name": "weiRaised",
      "outputs": [
        {
          "name": "",
          "type": "uint256"
        }
      ],
      "payable": false,
      "stateMutability": "view",
      "type": "function"
    },
    {
      "constant": true,
      "inputs": [],
      "name": "closingTime",
      "outputs": [
        {
          "name": "",
          "type": "uint256"
        }
      ],
      "payable": false,
      "stateMutability": "view",
      "type": "function"
    },
    {
      "constant": true,
      "inputs": [],
      "name": "wallet",
      "outputs": [
        {
          "name": "",
          "type": "address"
        }
      ],
      "payable": false,
      "stateMutability": "view",
      "type": "function"
    },
    {
      "constant": true,
      "inputs": [],
      "name": "lastOraclizeCallback",
      "outputs": [
        {
          "name": "",
          "type": "uint256"
        }
      ],
      "payable": false,
      "stateMutability": "view",
      "type": "function"
    },
    {
      "constant": true,
      "inputs": [],
      "name": "tokenReward",
      "outputs": [
        {
          "name": "",
          "type": "address"
        }
      ],
      "payable": false,
      "stateMutability": "view",
      "type": "function"
    },
    {
      "constant": false,
      "inputs": [],
      "name": "renounceOwnership",
      "outputs": [],
      "payable": false,
      "stateMutability": "nonpayable",
      "type": "function"
    },
    {
      "constant": false,
      "inputs": [],
      "name": "instantUpdate",
      "outputs": [],
      "payable": true,
      "stateMutability": "payable",
      "type": "function"
    },
    {
      "constant": false,
      "inputs": [
        {
          "name": "_beneficiary",
          "type": "address"
        }
      ],
      "name": "removeFromWhitelist",
      "outputs": [],
      "payable": false,
      "stateMutability": "nonpayable",
      "type": "function"
    },
    {
      "constant": false,
      "inputs": [
        {
          "name": "_beneficiaries",
          "type": "address[]"
        }
      ],
      "name": "addManyToWhitelist",
      "outputs": [],
      "payable": false,
      "stateMutability": "nonpayable",
      "type": "function"
    },
    {
      "constant": true,
      "inputs": [],
      "name": "owner",
      "outputs": [
        {
          "name": "",
          "type": "address"
        }
      ],
      "payable": false,
      "stateMutability": "view",
      "type": "function"
    },
    {
      "constant": true,
      "inputs": [
        {
          "name": "",
          "type": "address"
        }
      ],
      "name": "whitelist",
      "outputs": [
        {
          "name": "",
          "type": "bool"
        }
      ],
      "payable": false,
      "stateMutability": "view",
      "type": "function"
    },
    {
      "constant": false,
      "inputs": [],
      "name": "update",
      "outputs": [],
      "payable": true,
      "stateMutability": "payable",
      "type": "function"
    },
    {
      "constant": true,
      "inputs": [],
      "name": "tokensLeft",
      "outputs": [
        {
          "name": "",
          "type": "uint256"
        }
      ],
      "payable": false,
      "stateMutability": "view",
      "type": "function"
    },
    {
      "constant": true,
      "inputs": [],
      "name": "openingTime",
      "outputs": [
        {
          "name": "",
          "type": "uint256"
        }
      ],
      "payable": false,
      "stateMutability": "view",
      "type": "function"
    },
    {
      "constant": true,
      "inputs": [],
      "name": "stage",
      "outputs": [
        {
          "name": "",
          "type": "uint8"
        }
      ],
      "payable": false,
      "stateMutability": "view",
      "type": "function"
    },
    {
      "constant": false,
      "inputs": [
        {
          "name": "_beneficiary",
          "type": "address"
        }
      ],
      "name": "addToWhitelist",
      "outputs": [],
      "payable": false,
      "stateMutability": "nonpayable",
      "type": "function"
    },
    {
      "constant": false,
      "inputs": [
        {
          "name": "_newOwner",
          "type": "address"
        }
      ],
      "name": "transferOwnership",
      "outputs": [],
      "payable": false,
      "stateMutability": "nonpayable",
      "type": "function"
    },
    {
      "constant": true,
      "inputs": [],
      "name": "token",
      "outputs": [
        {
          "name": "",
          "type": "address"
        }
      ],
      "payable": false,
      "stateMutability": "view",
      "type": "function"
    },
    {
      "constant": true,
      "inputs": [],
      "name": "ethInCents",
      "outputs": [
        {
          "name": "",
          "type": "uint256"
        }
      ],
      "payable": false,
      "stateMutability": "view",
      "type": "function"
    },
    {
      "inputs": [
        {
          "name": "_openingTime",
          "type": "uint256"
        },
        {
          "name": "_closingTime",
          "type": "uint256"
        },
        {
          "name": "_wallet",
          "type": "address"
        },
        {
          "name": "_token",
          "type": "address"
        },
        {
          "name": "addressOfTokenUsedAsReward",
          "type": "address"
        },
        {
          "name": "_initialEthUsdCentsPrice",
          "type": "uint256"
        }
      ],
      "payable": false,
      "stateMutability": "nonpayable",
      "type": "constructor"
    },
    {
      "payable": true,
      "stateMutability": "payable",
      "type": "fallback"
    },
    {
      "anonymous": false,
      "inputs": [
        {
          "indexed": false,
          "name": "text",
          "type": "string"
        }
      ],
      "name": "EthTransferred",
      "type": "event"
    },
    {
      "anonymous": false,
      "inputs": [
        {
          "indexed": false,
          "name": "description",
          "type": "string"
        }
      ],
      "name": "LogOraclizeQuery",
      "type": "event"
    },
    {
      "anonymous": false,
      "inputs": [
        {
          "indexed": false,
          "name": "price",
          "type": "string"
        }
      ],
      "name": "LogPriceUpdated",
      "type": "event"
    },
    {
      "anonymous": false,
      "inputs": [
        {
          "indexed": true,
          "name": "previousOwner",
          "type": "address"
        }
      ],
      "name": "OwnershipRenounced",
      "type": "event"
    },
    {
      "anonymous": false,
      "inputs": [
        {
          "indexed": true,
          "name": "previousOwner",
          "type": "address"
        },
        {
          "indexed": true,
          "name": "newOwner",
          "type": "address"
        }
      ],
      "name": "OwnershipTransferred",
      "type": "event"
    },
    {
      "anonymous": false,
      "inputs": [
        {
          "indexed": true,
          "name": "purchaser",
          "type": "address"
        },
        {
          "indexed": true,
          "name": "beneficiary",
          "type": "address"
        },
        {
          "indexed": false,
          "name": "value",
          "type": "uint256"
        },
        {
          "indexed": false,
          "name": "amount",
          "type": "uint256"
        }
      ],
      "name": "TokenPurchase",
      "type": "event"
    },
    {
      "constant": true,
      "inputs": [],
      "name": "getTokensLeft",
      "outputs": [
        {
          "name": "",
          "type": "uint256"
        }
      ],
      "payable": false,
      "stateMutability": "view",
      "type": "function"
    },
    {
      "constant": false,
      "inputs": [
        {
          "name": "_beneficiary",
          "type": "address"
        }
      ],
      "name": "buyTokens",
      "outputs": [],
      "payable": true,
      "stateMutability": "payable",
      "type": "function"
    },
    {
      "constant": false,
      "inputs": [
        {
          "name": "_beneficiary",
          "type": "address"
        },
        {
          "name": "_amount",
          "type": "uint256"
        }
      ],
      "name": "buyTokensOtherCurrencies",
      "outputs": [],
      "payable": false,
      "stateMutability": "nonpayable",
      "type": "function"
    },
    {
      "constant": false,
      "inputs": [
        {
          "name": "_wallet",
          "type": "address"
        }
      ],
      "name": "endCrowdsale",
      "outputs": [],
      "payable": false,
      "stateMutability": "nonpayable",
      "type": "function"
    }
  ],
  "bytecode": "0x60806040526011805460ff199081169091556013805490911690553480156200002757600080fd5b5060405160c0806200361783398101604090815281516020830151918301516060840151608085015160a09095015192949192909190858560018686600160a060020a03821615156200007957600080fd5b600160a060020a03811615156200008f57600080fd5b60029290925560018054600160a060020a03928316600160a060020a0319918216179091556000805493909216928116929092179055600480549091163317905581811015620000de57600080fd5b6006919091556007556000600e5560088054600160a060020a031916734f95a4dced8beb5056ff1f0aa8dbe17ded99327c17905562000125640100000000620001e8810204565b600d8190556011805461010060a860020a031916610100600160a060020a0385811682029290921792839055604080517f2ff2e9dc00000000000000000000000000000000000000000000000000000000815290519190930490911691632ff2e9dc9160048083019260209291908290030181600087803b158015620001aa57600080fd5b505af1158015620001bf573d6000803e3d6000fd5b505050506040513d6020811015620001d657600080fd5b50516012555062000f5d945050505050565b6000620001fd6401000000006200036a810204565b15156200020957600080fd5b601054156200021757600080fd5b6040805160208082526031908201527f52657175657374696e67204f7261636c697a6520746f207375626d6974206c61818301527f7465737420455448555344207072696365000000000000000000000000000000606082015290517f0415a732c27dc65a8318b1f49677f1d76eb7365d60653ee494ed0897ef70abc89181900360800190a16200034b603c6040805190810160405280600381526020017f55524c0000000000000000000000000000000000000000000000000000000000815250606060405190810160405280603081526020017f6a736f6e2868747470733a2f2f6170692e696e667572612e696f2f76312f746981526020017f636b65722f657468757364292e61736b00000000000000000000000000000000815250620003c0640100000000026401000000009004565b6000818152600f60205260409020805460ff1916600117905560105550565b60408051808201909152600381527f55524c00000000000000000000000000000000000000000000000000000000006020820152600090303190620003b89064010000000062000818810204565b111590505b90565b6008546000908190600160a060020a03161580620003fb5750600854620003f990600160a060020a031664010000000062000ad7810204565b155b15620004185762000416600064010000000062000adb810204565b505b600860009054906101000a9004600160a060020a0316600160a060020a03166338cc48316040518163ffffffff167c0100000000000000000000000000000000000000000000000000000000028152600401602060405180830381600087803b1580156200048557600080fd5b505af11580156200049a573d6000803e3d6000fd5b505050506040513d6020811015620004b157600080fd5b5051600954600160a060020a039081169116146200058457600860009054906101000a9004600160a060020a0316600160a060020a03166338cc48316040518163ffffffff167c0100000000000000000000000000000000000000000000000000000000028152600401602060405180830381600087803b1580156200053657600080fd5b505af11580156200054b573d6000803e3d6000fd5b505050506040513d60208110156200056257600080fd5b505160098054600160a060020a031916600160a060020a039092169190911790555b6009546040517f524f3889000000000000000000000000000000000000000000000000000000008152602060048201818152875160248401528751600160a060020a039094169363524f388993899383926044909201919085019080838360005b83811015620005ff578181015183820152602001620005e5565b50505050905090810190601f1680156200062d5780820380516001836020036101000a031916815260200191505b5092505050602060405180830381600087803b1580156200064d57600080fd5b505af115801562000662573d6000803e3d6000fd5b505050506040513d60208110156200067957600080fd5b50519050670de0b6b3a764000062030d403a02018111156200069f576000915062000810565b6009546040517fadf59f9900000000000000000000000000000000000000000000000000000000815260048101878152606060248301908152875160648401528751600160a060020a039094169363adf59f999386938b938b938b936044810191608490910190602087019080838360005b838110156200072b57818101518382015260200162000711565b50505050905090810190601f168015620007595780820380516001836020036101000a031916815260200191505b50838103825284518152845160209182019186019080838360005b838110156200078e57818101518382015260200162000774565b50505050905090810190601f168015620007bc5780820380516001836020036101000a031916815260200191505b50955050505050506020604051808303818588803b158015620007de57600080fd5b505af1158015620007f3573d6000803e3d6000fd5b50505050506040513d60208110156200080b57600080fd5b505191505b509392505050565b600854600090600160a060020a031615806200085157506008546200084f90600160a060020a031664010000000062000ad7810204565b155b156200086e576200086c600064010000000062000adb810204565b505b600860009054906101000a9004600160a060020a0316600160a060020a03166338cc48316040518163ffffffff167c0100000000000000000000000000000000000000000000000000000000028152600401602060405180830381600087803b158015620008db57600080fd5b505af1158015620008f0573d6000803e3d6000fd5b505050506040513d60208110156200090757600080fd5b5051600954600160a060020a03908116911614620009da57600860009054906101000a9004600160a060020a0316600160a060020a03166338cc48316040518163ffffffff167c0100000000000000000000000000000000000000000000000000000000028152600401602060405180830381600087803b1580156200098c57600080fd5b505af1158015620009a1573d6000803e3d6000fd5b505050506040513d6020811015620009b857600080fd5b505160098054600160a060020a031916600160a060020a039092169190911790555b6009546040517f524f3889000000000000000000000000000000000000000000000000000000008152602060048201818152855160248401528551600160a060020a039094169363524f388993879383926044909201919085019080838360005b8381101562000a5557818101518382015260200162000a3b565b50505050905090810190601f16801562000a835780820380516001836020036101000a031916815260200191505b5092505050602060405180830381600087803b15801562000aa357600080fd5b505af115801562000ab8573d6000803e3d6000fd5b505050506040513d602081101562000acf57600080fd5b505192915050565b3b90565b600062000af064010000000062000af6810204565b92915050565b60008062000b21731d3b2638a7cc9f2cb3d298a3da7a90b67e5506ed64010000000062000ad7810204565b111562000b9f5760088054600160a060020a031916731d3b2638a7cc9f2cb3d298a3da7a90b67e5506ed17905560408051808201909152600b81527f6574685f6d61696e6e6574000000000000000000000000000000000000000000602082015262000b969064010000000062000ea2810204565b506001620003bd565b600062000bc973c03a2615d5efaf5f49f60b7bb6583eaec212fdf164010000000062000ad7810204565b111562000c3e5760088054600160a060020a03191673c03a2615d5efaf5f49f60b7bb6583eaec212fdf117905560408051808201909152600c81527f6574685f726f707374656e330000000000000000000000000000000000000000602082015262000b969064010000000062000ea2810204565b600062000c6873b7a07bcf2ba2f2703b24c0691b5278999c59ac7e64010000000062000ad7810204565b111562000cdd5760088054600160a060020a03191673b7a07bcf2ba2f2703b24c0691b5278999c59ac7e17905560408051808201909152600981527f6574685f6b6f76616e0000000000000000000000000000000000000000000000602082015262000b969064010000000062000ea2810204565b600062000d0773146500cfd35b22e4a392fe0adc06de1a1368ed4864010000000062000ad7810204565b111562000d7c5760088054600160a060020a03191673146500cfd35b22e4a392fe0adc06de1a1368ed4817905560408051808201909152600b81527f6574685f72696e6b656279000000000000000000000000000000000000000000602082015262000b969064010000000062000ea2810204565b600062000da6736f485c8bf6fc43ea212e93bbf8ce046c7f1cb47564010000000062000ad7810204565b111562000ddc575060088054600160a060020a031916736f485c8bf6fc43ea212e93bbf8ce046c7f1cb4751790556001620003bd565b600062000e067320e12a1f859b3feae5fb2a0a32c18f5a65555bbf64010000000062000ad7810204565b111562000e3c575060088054600160a060020a0319167320e12a1f859b3feae5fb2a0a32c18f5a65555bbf1790556001620003bd565b600062000e667351efaf4c8b3c9afbd5ab9f4bbc82784ab6ef8faa64010000000062000ad7810204565b111562000e9c575060088054600160a060020a0319167351efaf4c8b3c9afbd5ab9f4bbc82784ab6ef8faa1790556001620003bd565b50600090565b805162000eb790600a90602084019062000ebb565b5050565b828054600181600116156101000203166002900490600052602060002090601f016020900481019282601f1062000efe57805160ff191683800117855562000f2e565b8280016001018555821562000f2e579182015b8281111562000f2e57825182559160200191906001019062000f11565b5062000f3c92915062000f40565b5090565b620003bd91905b8082111562000f3c576000815560010162000f47565b6126aa8062000f6d6000396000f3006080604052600436106101455763ffffffff60e060020a6000350416631515bc2b81146101cd57806327dc297e146101f65780632c4e722e1461025457806338bbfa501461027b5780634042b66f146103175780634b6753bc1461032c578063521eb27314610341578063563511a71461037257806360fd19ba146103935780636e66f6e9146103a8578063715018a6146103bd57806381592aab146103d25780638ab1d681146103da5780638c10671c146103fb5780638da5cb5b1461041b5780639b19251a14610430578063a2e6204514610451578063b31f8f9314610459578063b7a8807c1461046e578063c040e6b814610483578063de5f9866146104bc578063e43252d7146104d1578063ec8ac4d8146104f2578063f2fde38b14610506578063f453038f14610527578063fc0c546a1461054b578063fe31482a14610560575b635b37adb042116101605761015b60005b610575565b6101c2565b635b37adb0421180156101775750635b37b0084211155b156101865761015b6001610156565b635b37b0084211801561019d5750635b37b2604211155b156101ac5761015b6002610156565b635b37b2604211156101c2576101c26003610156565b6101cb336106cd565b005b3480156101d957600080fd5b506101e26108d6565b604080519115158252519081900360200190f35b34801561020257600080fd5b5060408051602060046024803582810135601f81018590048502860185019096528585526101cb9583359536956044949193909101919081908401838280828437509497506108df9650505050505050565b34801561026057600080fd5b50610269610a03565b60408051918252519081900360200190f35b34801561028757600080fd5b5060408051602060046024803582810135601f81018590048502860185019096528585526101cb95833595369560449491939091019190819084018382808284375050604080516020601f89358b018035918201839004830284018301909452808352979a999881019791965091820194509250829150840183828082843750949750610a099650505050505050565b34801561032357600080fd5b50610269610a0e565b34801561033857600080fd5b50610269610a14565b34801561034d57600080fd5b50610356610a1a565b60408051600160a060020a039092168252519081900360200190f35b34801561037e57600080fd5b506101cb600160a060020a0360043516610a29565b34801561039f57600080fd5b50610269610be0565b3480156103b457600080fd5b50610356610be6565b3480156103c957600080fd5b506101cb610bfa565b6101cb610c5b565b3480156103e657600080fd5b506101cb600160a060020a0360043516610d96565b34801561040757600080fd5b506101cb6004803560248101910135610dce565b34801561042757600080fd5b50610356610e3f565b34801561043c57600080fd5b506101e2600160a060020a0360043516610e4e565b6101cb610e63565b34801561046557600080fd5b50610269610fb0565b34801561047a57600080fd5b50610269610fb6565b34801561048f57600080fd5b50610498610fbc565b604051808260038111156104a857fe5b60ff16815260200191505060405180910390f35b3480156104c857600080fd5b50610269610fc5565b3480156104dd57600080fd5b506101cb600160a060020a0360043516610fcb565b6101cb600160a060020a03600435166106cd565b34801561051257600080fd5b506101cb600160a060020a0360043516611006565b34801561053357600080fd5b506101cb600160a060020a0360043516602435611029565b34801561055757600080fd5b50610356611295565b34801561056c57600080fd5b506102696112a4565b6000811515610586575060006105b5565b8160011415610597575060016105b5565b81600214156105a8575060026105b5565b81600314156105b5575060035b6013805482919060ff191660018360038111156105ce57fe5b0217905550600060135460ff1660038111156105e657fe5b14156106215761061c6106176103e861060b6078600d546112aa90919063ffffffff16565b9063ffffffff6112d916565b6112ee565b6106c9565b600160135460ff16600381111561063457fe5b14156106595761061c6106176103e861060b6073600d546112aa90919063ffffffff16565b600260135460ff16600381111561066c57fe5b14156106915761061c6106176103e861060b606e600d546112aa90919063ffffffff16565b600360135460ff1660038111156106a457fe5b14156106c9576106c96106176103e861060b6069600d546112aa90919063ffffffff16565b5050565b601154600090819060ff16156106e257600080fd5b6011805460ff19166001179055600160a060020a038316151561070457600080fd5b34915061071183836112f3565b60025461072590839063ffffffff6112aa16565b60035490915061073b908363ffffffff61131c16565b600355601154604080517f8da5cb5b0000000000000000000000000000000000000000000000000000000081529051610100909204600160a060020a0316916323b872dd918391638da5cb5b916004808201926020929091908290030181600087803b1580156107aa57600080fd5b505af11580156107be573d6000803e3d6000fd5b505050506040513d60208110156107d457600080fd5b50516040805160e060020a63ffffffff8516028152600160a060020a0392831660048201529187166024830152604482018590525160648083019260209291908290030181600087803b15801561082a57600080fd5b505af115801561083e573d6000803e3d6000fd5b505050506040513d602081101561085457600080fd5b5051151561086157600080fd5b601254610874908263ffffffff61132916565b60125560408051838152602081018390528151600160a060020a0386169233927f623b3804fa71d67900d064613da8f94b9617215ee90799290593e1745087ad18929081900390910190a36108c761133b565b50506011805460ff1916905550565b60075442115b90565b6108e7611374565b600160a060020a031633146108fb57600080fd5b6000828152600f602052604090205460ff16151561091857600080fd5b610923816002611569565b600d556000828152600f60209081526040808320805460ff1916905543600e55805182815284518184015284517f71f1a5645e51a2da828ffcf79cc17da88eb25e1bca8b9dced23210847a4769c19486949293849390840192908601918190849084905b8381101561099f578181015183820152602001610987565b50505050905090810190601f1680156109cc5780820380516001836020036101000a031916815260200191505b509250505060405180910390a160105482141561061c5760006010556109f0611723565b15156109fb576106c9565b6106c9610e63565b60025481565b505050565b60035481565b60075481565b600154600160a060020a031681565b600454600160a060020a03163314610a4057600080fd5b60115460ff1615610a5057600080fd5b60118054600160ff199091161790819055604080517f8da5cb5b0000000000000000000000000000000000000000000000000000000081529051610100909204600160a060020a0316916323b872dd918391638da5cb5b916004808201926020929091908290030181600087803b158015610aca57600080fd5b505af1158015610ade573d6000803e3d6000fd5b505050506040513d6020811015610af457600080fd5b50516012546040805160e060020a63ffffffff8616028152600160a060020a039384166004820152928616602484015260448301919091525160648083019260209291908290030181600087803b158015610b4e57600080fd5b505af1158015610b62573d6000803e3d6000fd5b505050506040513d6020811015610b7857600080fd5b50511515610b8557600080fd5b600060128190556040805182815260208101929092528051600160a060020a0384169283927f623b3804fa71d67900d064613da8f94b9617215ee90799290593e1745087ad1892918290030190a3506011805460ff19169055565b600e5481565b6011546101009004600160a060020a031681565b600454600160a060020a03163314610c1157600080fd5b600454604051600160a060020a03909116907ff8df31144d9c2f0f6b59d69b8b98abd5459d07f2742c4df920b25aae33c6482090600090a260048054600160a060020a0319169055565b6000610c6561175e565b1515610c7057600080fd5b604080516020808252603b908201527f52657175657374696e67204f7261636c697a6520746f207375626d6974206c61818301527f746573742045544855534420707269636520696e7374616e746c790000000000606082015290517f0415a732c27dc65a8318b1f49677f1d76eb7365d60653ee494ed0897ef70abc89181900360800190a1610d7a60408051908101604052806003815260200160ea60020a6215549302815250606060405190810160405280603081526020017f6a736f6e2868747470733a2f2f6170692e696e667572612e696f2f76312f746981526020017f636b65722f657468757364292e61736b00000000000000000000000000000000815250611788565b6000908152600f60205260409020805460ff1916600117905550565b600454600160a060020a03163314610dad57600080fd5b600160a060020a03166000908152600560205260409020805460ff19169055565b600454600090600160a060020a03163314610de857600080fd5b5060005b81811015610a0957600160056000858585818110610e0657fe5b60209081029290920135600160a060020a0316835250810191909152604001600020805460ff1916911515919091179055600101610dec565b600454600160a060020a031681565b60056020526000908152604090205460ff1681565b6000610e6d611723565b1515610e7857600080fd5b60105415610e8557600080fd5b6040805160208082526031908201527f52657175657374696e67204f7261636c697a6520746f207375626d6974206c61818301527f7465737420455448555344207072696365000000000000000000000000000000606082015290517f0415a732c27dc65a8318b1f49677f1d76eb7365d60653ee494ed0897ef70abc89181900360800190a1610f91603c60408051908101604052806003815260200160ea60020a6215549302815250606060405190810160405280603081526020017f6a736f6e2868747470733a2f2f6170692e696e667572612e696f2f76312f746981526020017f636b65722f657468757364292e61736b00000000000000000000000000000000815250611b7f565b6000818152600f60205260409020805460ff1916600117905560105550565b60125481565b60065481565b60135460ff1681565b60125490565b600454600160a060020a03163314610fe257600080fd5b600160a060020a03166000908152600560205260409020805460ff19166001179055565b600454600160a060020a0316331461101d57600080fd5b61102681611f75565b50565b600454600090600160a060020a0316331461104357600080fd5b60115460ff161561105357600080fd5b60118054600160ff199091161790819055604080517f313ce5670000000000000000000000000000000000000000000000000000000081529051610100909204600160a060020a03169163313ce567916004808201926020929091908290030181600087803b1580156110c557600080fd5b505af11580156110d9573d6000803e3d6000fd5b505050506040513d60208110156110ef57600080fd5b505160ff16600a0a8202905061110583826112f3565b601154604080517f8da5cb5b0000000000000000000000000000000000000000000000000000000081529051610100909204600160a060020a0316916323b872dd918391638da5cb5b916004808201926020929091908290030181600087803b15801561117157600080fd5b505af1158015611185573d6000803e3d6000fd5b505050506040513d602081101561119b57600080fd5b50516040805160e060020a63ffffffff8516028152600160a060020a0392831660048201529187166024830152604482018590525160648083019260209291908290030181600087803b1580156111f157600080fd5b505af1158015611205573d6000803e3d6000fd5b505050506040513d602081101561121b57600080fd5b5051151561122857600080fd5b60125461123b908263ffffffff61132916565b60125560408051828152602081018390528151600160a060020a0386169283927f623b3804fa71d67900d064613da8f94b9617215ee90799290593e1745087ad18929081900390910190a350506011805460ff1916905550565b600054600160a060020a031681565b600d5481565b60008215156112bb575060006112d3565b508181028183828115156112cb57fe5b04146112d357fe5b92915050565b600081838115156112e657fe5b049392505050565b600255565b600654421015801561130757506007544211155b151561131257600080fd5b6106c98282611fe6565b818101828110156112d357fe5b60008282111561133557fe5b50900390565b600154604051600160a060020a03909116903480156108fc02916000818181858888f19350505050158015611026573d6000803e3d6000fd5b600854600090600160a060020a031615806113a1575060085461139f90600160a060020a0316612019565b155b156113b2576113b0600061201d565b505b600860009054906101000a9004600160a060020a0316600160a060020a03166338cc48316040518163ffffffff1660e060020a028152600401602060405180830381600087803b15801561140557600080fd5b505af1158015611419573d6000803e3d6000fd5b505050506040513d602081101561142f57600080fd5b5051600954600160a060020a039081169116146114e557600860009054906101000a9004600160a060020a0316600160a060020a03166338cc48316040518163ffffffff1660e060020a028152600401602060405180830381600087803b15801561149957600080fd5b505af11580156114ad573d6000803e3d6000fd5b505050506040513d60208110156114c357600080fd5b505160098054600160a060020a031916600160a060020a039092169190911790555b600960009054906101000a9004600160a060020a0316600160a060020a031663c281d19e6040518163ffffffff1660e060020a028152600401602060405180830381600087803b15801561153857600080fd5b505af115801561154c573d6000803e3d6000fd5b505050506040513d602081101561156257600080fd5b5051905090565b6000828180805b83518110156117065783517f3000000000000000000000000000000000000000000000000000000000000000908590839081106115a957fe5b90602001015160f860020a900460f860020a027effffffffffffffffffffffffffffffffffffffffffffffffffffffffffffff19161015801561164f575083517f39000000000000000000000000000000000000000000000000000000000000009085908390811061161757fe5b90602001015160f860020a900460f860020a027effffffffffffffffffffffffffffffffffffffffffffffffffffffffffffff191611155b156116a857811561166e5785151561166657611706565b600019909501945b600a830292506030848281518110151561168457fe5b90602001015160f860020a900460f860020a0260f860020a900403830192506116fe565b83818151811015156116b657fe5b90602001015160f860020a900460f860020a027effffffffffffffffffffffffffffffffffffffffffffffffffffffffffffff1916602e60f860020a0214156116fe57600191505b600101611570565b60008611156117185785600a0a830292505b509095945050505050565b600030600160a060020a03163161175760408051908101604052806003815260200160ea60020a6215549302815250612027565b1115905090565b60003461175760408051908101604052806003815260200160ea60020a6215549302815250612027565b6008546000908190600160a060020a031615806117b757506008546117b590600160a060020a0316612019565b155b156117c8576117c6600061201d565b505b600860009054906101000a9004600160a060020a0316600160a060020a03166338cc48316040518163ffffffff1660e060020a028152600401602060405180830381600087803b15801561181b57600080fd5b505af115801561182f573d6000803e3d6000fd5b505050506040513d602081101561184557600080fd5b5051600954600160a060020a039081169116146118fb57600860009054906101000a9004600160a060020a0316600160a060020a03166338cc48316040518163ffffffff1660e060020a028152600401602060405180830381600087803b1580156118af57600080fd5b505af11580156118c3573d6000803e3d6000fd5b505050506040513d60208110156118d957600080fd5b505160098054600160a060020a031916600160a060020a039092169190911790555b6009546040517f524f3889000000000000000000000000000000000000000000000000000000008152602060048201818152875160248401528751600160a060020a039094169363524f388993899383926044909201919085019080838360005b8381101561197457818101518382015260200161195c565b50505050905090810190601f1680156119a15780820380516001836020036101000a031916815260200191505b5092505050602060405180830381600087803b1580156119c057600080fd5b505af11580156119d4573d6000803e3d6000fd5b505050506040513d60208110156119ea57600080fd5b50519050670de0b6b3a764000062030d403a0201811115611a0e5760009150611b78565b6009546040517fadf59f99000000000000000000000000000000000000000000000000000000008152600060048201818152606060248401908152885160648501528851600160a060020a039095169463adf59f99948794938b938b939192909160448201916084019060208701908083838b5b83811015611a9a578181015183820152602001611a82565b50505050905090810190601f168015611ac75780820380516001836020036101000a031916815260200191505b50838103825284518152845160209182019186019080838360005b83811015611afa578181015183820152602001611ae2565b50505050905090810190601f168015611b275780820380516001836020036101000a031916815260200191505b50955050505050506020604051808303818588803b158015611b4857600080fd5b505af1158015611b5c573d6000803e3d6000fd5b50505050506040513d6020811015611b7357600080fd5b505191505b5092915050565b6008546000908190600160a060020a03161580611bae5750600854611bac90600160a060020a0316612019565b155b15611bbf57611bbd600061201d565b505b600860009054906101000a9004600160a060020a0316600160a060020a03166338cc48316040518163ffffffff1660e060020a028152600401602060405180830381600087803b158015611c1257600080fd5b505af1158015611c26573d6000803e3d6000fd5b505050506040513d6020811015611c3c57600080fd5b5051600954600160a060020a03908116911614611cf257600860009054906101000a9004600160a060020a0316600160a060020a03166338cc48316040518163ffffffff1660e060020a028152600401602060405180830381600087803b158015611ca657600080fd5b505af1158015611cba573d6000803e3d6000fd5b505050506040513d6020811015611cd057600080fd5b505160098054600160a060020a031916600160a060020a039092169190911790555b6009546040517f524f3889000000000000000000000000000000000000000000000000000000008152602060048201818152875160248401528751600160a060020a039094169363524f388993899383926044909201919085019080838360005b83811015611d6b578181015183820152602001611d53565b50505050905090810190601f168015611d985780820380516001836020036101000a031916815260200191505b5092505050602060405180830381600087803b158015611db757600080fd5b505af1158015611dcb573d6000803e3d6000fd5b505050506040513d6020811015611de157600080fd5b50519050670de0b6b3a764000062030d403a0201811115611e055760009150611f6d565b6009546040517fadf59f9900000000000000000000000000000000000000000000000000000000815260048101878152606060248301908152875160648401528751600160a060020a039094169363adf59f999386938b938b938b936044810191608490910190602087019080838360005b83811015611e8f578181015183820152602001611e77565b50505050905090810190601f168015611ebc5780820380516001836020036101000a031916815260200191505b50838103825284518152845160209182019186019080838360005b83811015611eef578181015183820152602001611ed7565b50505050905090810190601f168015611f1c5780820380516001836020036101000a031916815260200191505b50955050505050506020604051808303818588803b158015611f3d57600080fd5b505af1158015611f51573d6000803e3d6000fd5b50505050506040513d6020811015611f6857600080fd5b505191505b509392505050565b600160a060020a0381161515611f8a57600080fd5b600454604051600160a060020a038084169216907f8be0079c531659141344cd1fd0a4f28419497f9722a3daafe3b4186f6b6457e090600090a360048054600160a060020a031916600160a060020a0392909216919091179055565b600160a060020a038216600090815260056020526040902054829060ff16151561200f57600080fd5b610a09838361228f565b3b90565b60006112d36122b0565b600854600090600160a060020a03161580612054575060085461205290600160a060020a0316612019565b155b1561206557612063600061201d565b505b600860009054906101000a9004600160a060020a0316600160a060020a03166338cc48316040518163ffffffff1660e060020a028152600401602060405180830381600087803b1580156120b857600080fd5b505af11580156120cc573d6000803e3d6000fd5b505050506040513d60208110156120e257600080fd5b5051600954600160a060020a0390811691161461219857600860009054906101000a9004600160a060020a0316600160a060020a03166338cc48316040518163ffffffff1660e060020a028152600401602060405180830381600087803b15801561214c57600080fd5b505af1158015612160573d6000803e3d6000fd5b505050506040513d602081101561217657600080fd5b505160098054600160a060020a031916600160a060020a039092169190911790555b6009546040517f524f3889000000000000000000000000000000000000000000000000000000008152602060048201818152855160248401528551600160a060020a039094169363524f388993879383926044909201919085019080838360005b838110156122115781810151838201526020016121f9565b50505050905090810190601f16801561223e5780820380516001836020036101000a031916815260200191505b5092505050602060405180830381600087803b15801561225d57600080fd5b505af1158015612271573d6000803e3d6000fd5b505050506040513d602081101561228757600080fd5b505192915050565b600160a060020a03821615156122a457600080fd5b8015156106c957600080fd5b6000806122d0731d3b2638a7cc9f2cb3d298a3da7a90b67e5506ed612019565b11156123415760088054600160a060020a031916731d3b2638a7cc9f2cb3d298a3da7a90b67e5506ed17905560408051808201909152600b81527f6574685f6d61696e6e65740000000000000000000000000000000000000000006020820152612339906125d8565b5060016108dc565b600061236073c03a2615d5efaf5f49f60b7bb6583eaec212fdf1612019565b11156123c95760088054600160a060020a03191673c03a2615d5efaf5f49f60b7bb6583eaec212fdf117905560408051808201909152600c81527f6574685f726f707374656e3300000000000000000000000000000000000000006020820152612339906125d8565b60006123e873b7a07bcf2ba2f2703b24c0691b5278999c59ac7e612019565b11156124515760088054600160a060020a03191673b7a07bcf2ba2f2703b24c0691b5278999c59ac7e17905560408051808201909152600981527f6574685f6b6f76616e00000000000000000000000000000000000000000000006020820152612339906125d8565b600061247073146500cfd35b22e4a392fe0adc06de1a1368ed48612019565b11156124d95760088054600160a060020a03191673146500cfd35b22e4a392fe0adc06de1a1368ed4817905560408051808201909152600b81527f6574685f72696e6b6562790000000000000000000000000000000000000000006020820152612339906125d8565b60006124f8736f485c8bf6fc43ea212e93bbf8ce046c7f1cb475612019565b111561252c575060088054600160a060020a031916736f485c8bf6fc43ea212e93bbf8ce046c7f1cb47517905560016108dc565b600061254b7320e12a1f859b3feae5fb2a0a32c18f5a65555bbf612019565b111561257f575060088054600160a060020a0319167320e12a1f859b3feae5fb2a0a32c18f5a65555bbf17905560016108dc565b600061259e7351efaf4c8b3c9afbd5ab9f4bbc82784ab6ef8faa612019565b11156125d2575060088054600160a060020a0319167351efaf4c8b3c9afbd5ab9f4bbc82784ab6ef8faa17905560016108dc565b50600090565b80516106c990600a906020840190828054600181600116156101000203166002900490600052602060002090601f016020900481019282601f1061262757805160ff1916838001178555612654565b82800160010185558215612654579182015b82811115612654578251825591602001919060010190612639565b50612660929150612664565b5090565b6108dc91905b80821115612660576000815560010161266a5600a165627a7a723058209d238fac44cad48957daf68e83bc2e69d88be2abc2a6229ee3770ac03428a8db0029",
  "source": "pragma solidity ^0.4.24;\n\nimport './H3O.sol';\nimport \"./ETHUSD.sol\";\nimport '../node_modules/zeppelin-solidity/contracts/crowdsale/validation/WhitelistedCrowdsale.sol';\nimport '../node_modules/zeppelin-solidity/contracts/crowdsale/validation/TimedCrowdsale.sol';\nimport '../node_modules/zeppelin-solidity/contracts/math/SafeMath.sol';\nimport '../node_modules/zeppelin-solidity/contracts/ReentrancyGuard.sol';\n\ncontract H3OCrowdsale is WhitelistedCrowdsale, TimedCrowdsale, ETHUSD, ReentrancyGuard {\n\n  using SafeMath for uint256;\n\n  //The Token beeing sold\n  H3O public tokenReward;\n\n  //Amount of Tokens unsold\n  uint256 public tokensLeft;\n\n  //Function to check how many tokens are left in the crowdsale\n  function getTokensLeft() public view returns (uint256) {\n    return tokensLeft;\n  }\n\n  // ICO Stage\n  // ============\n  enum CrowdsaleStage { Stage1, Stage2, Stage3, Stage4 }\n  CrowdsaleStage public stage = CrowdsaleStage.Stage1; // By default it's Stage1\n  // =============\n\n\n  // Events\n  event EthTransferred(string text);\n\n\n  // Constructor\n  // ============\n  function H3OCrowdsale(uint256 _openingTime, uint256 _closingTime, address _wallet, StandardBurnableToken _token, address addressOfTokenUsedAsReward, uint256 _initialEthUsdCentsPrice) TimedCrowdsale(_openingTime, _closingTime) \n    Crowdsale(1, _wallet, _token) public {\n      ethInCents = _initialEthUsdCentsPrice;\n      tokenReward = H3O(addressOfTokenUsedAsReward);\n      tokensLeft = tokenReward.INITIAL_SUPPLY();\n    }\n  // =============\n\n  // ==================\n\n  // Crowdsale Stage Management\n  // =========================================================\n\n  // Change Crowdsale Stage. Available Options: Stage1, Stage2, Stage3, Stage4\n  function setCrowdsaleStage(uint value) private {\n\n      CrowdsaleStage _stage;\n\n      if (uint(CrowdsaleStage.Stage1) == value) {\n        _stage = CrowdsaleStage.Stage1;\n      } else if (uint(CrowdsaleStage.Stage2) == value) {\n        _stage = CrowdsaleStage.Stage2;\n      } else if (uint(CrowdsaleStage.Stage3) == value) {\n        _stage = CrowdsaleStage.Stage3;\n      } else if (uint(CrowdsaleStage.Stage4) == value) {\n        _stage = CrowdsaleStage.Stage4;\n      }\n\n      stage = _stage;\n\n      //Setting the current rate with oraclize and discounts\n      //One token is equal to 0,1 dollar\n      //The rest oft the equation is just a percentual equation of the Discount-stages\n      if (stage == CrowdsaleStage.Stage1) {\n        setCurrentRate((ethInCents.mul(120)).div(1000));\n      } else if (stage == CrowdsaleStage.Stage2) {\n        setCurrentRate((ethInCents.mul(115)).div(1000));\n      } else if (stage == CrowdsaleStage.Stage3) {\n        setCurrentRate((ethInCents.mul(110)).div(1000));\n      } else if (stage == CrowdsaleStage.Stage4) {\n        setCurrentRate((ethInCents.mul(105)).div(1000));\n      }\n  }\n\n  // Change the current rate\n  function setCurrentRate(uint256 _rate) private { \n      rate = _rate;\n  }\n\n  // ================ Stage Management Over =====================\n\n  // Token Purchase\n  // =========================\n  function () external payable {\n    \n      if(now <= 1530375600) {\n        setCrowdsaleStage(uint(CrowdsaleStage.Stage1));\n      } else if (now > 1530375600 && now <= 1530376200) {\n        setCrowdsaleStage(uint(CrowdsaleStage.Stage2));\n      } else if (now > 1530376200 && now <= 1530376800) {\n        setCrowdsaleStage(uint(CrowdsaleStage.Stage3));\n      } else if (now > 1530376800) {\n        setCrowdsaleStage(uint(CrowdsaleStage.Stage4));\n      }\n\n  // Set Crowdsale Stages depending on time\n      buyTokens(msg.sender);\n  }\n\n  //Overwritten buyTokens function, which transfers tokens without minting new ones (fixed amount of tokens)\n  function buyTokens(address _beneficiary) public payable nonReentrant {\n    require(_beneficiary != address(0));\n\n    uint256 weiAmount = msg.value;\n    _preValidatePurchase(_beneficiary, weiAmount);\n\n    // calculate token amount to be created\n    uint256 tokens = weiAmount.mul(rate);\n\n    // update state\n    weiRaised = weiRaised.add(weiAmount);\n\n    // Instead of minting new token transfer from\n    // those assigned to the Crowdsale contract\n    // token.mint(beneficiary, tokens);\n    require(tokenReward.transferFrom(tokenReward.owner(), _beneficiary, tokens));\n\n    tokensLeft = tokensLeft.sub(tokens);\n\n    TokenPurchase(msg.sender, _beneficiary, weiAmount, tokens);\n\n    _forwardFunds();\n  }\n\n\n  //A function to assign tokens to an address manually. It should be used for payments received in other currencies.\n  //_amount has to be in tokens without decimals, as those will be added in the first line of the function.\n  function buyTokensOtherCurrencies(address _beneficiary, uint256 _amount) external onlyOwner nonReentrant {\n\n    //Add tokens decimals\n    uint256 tokens = _amount * (10 ** uint256(tokenReward.decimals()));\n\n    _preValidatePurchase(_beneficiary, tokens);\n\n    //transfering tokens from the crowdsale to beneficiary stated\n    require(tokenReward.transferFrom(tokenReward.owner(), _beneficiary, tokens));\n\n    //Substrakt Tokens from the remaining tokens.\n    tokensLeft = tokensLeft.sub(tokens);\n\n    TokenPurchase(_beneficiary ,_beneficiary, tokens, tokens);\n  }\n\n  //After the Crowdsale is over, this function can be called to transfer all unsold Tokens to a wallet\n  function endCrowdsale(address _wallet) external onlyOwner nonReentrant {\n    require(tokenReward.transferFrom(tokenReward.owner(), _wallet, tokensLeft));\n\n    //Set tokensLeft to 0, signalising the end of the Crowdsale\n    tokensLeft = 0;\n\n    TokenPurchase(_wallet, _wallet, tokensLeft, tokensLeft);\n  }\n\n}",
  "sourcePath": "/Users/florianpircher/Documents/HydrominerCoin/contracts/H3OCrowdsale.sol",
  "compiler": {
    "name": "solc",
    "version": "0.4.24+commit.e67f0147.Emscripten.clang"
  },
  "schemaVersion": "2.0.1",
  "updatedAt": "2018-07-06T15:45:26.835Z"
}